{
	"marketplace.sol": {
		"Marketplace": {
			"abi": [
				{
					"inputs": [
						{
							"internalType": "address",
							"name": "nftAddress",
							"type": "address"
						},
						{
							"internalType": "uint256",
							"name": "tokenID",
							"type": "uint256"
						}
					],
					"name": "buyNft",
					"outputs": [],
					"stateMutability": "payable",
					"type": "function"
				},
				{
					"inputs": [
						{
							"internalType": "uint256",
							"name": "",
							"type": "uint256"
						}
					],
					"name": "isListed",
					"outputs": [
						{
							"internalType": "bool",
							"name": "",
							"type": "bool"
						}
					],
					"stateMutability": "view",
					"type": "function"
				},
				{
					"inputs": [
						{
							"internalType": "address",
							"name": "nftAddress",
							"type": "address"
						},
						{
							"internalType": "uint256",
							"name": "tokenID",
							"type": "uint256"
						},
						{
							"internalType": "uint256",
							"name": "price",
							"type": "uint256"
						}
					],
					"name": "listItem",
					"outputs": [],
					"stateMutability": "payable",
					"type": "function"
				},
				{
					"inputs": [
						{
							"internalType": "uint256",
							"name": "",
							"type": "uint256"
						}
					],
					"name": "nftListings",
					"outputs": [
						{
							"internalType": "address",
							"name": "nftAddress",
							"type": "address"
						},
						{
							"internalType": "uint256",
							"name": "tokenID",
							"type": "uint256"
						},
						{
							"internalType": "address",
							"name": "owner",
							"type": "address"
						},
						{
							"internalType": "uint256",
							"name": "price",
							"type": "uint256"
						}
					],
					"stateMutability": "view",
					"type": "function"
				},
				{
					"inputs": [],
					"name": "owner",
					"outputs": [
						{
							"internalType": "address payable",
							"name": "",
							"type": "address"
						}
					],
					"stateMutability": "view",
					"type": "function"
				},
				{
					"inputs": [],
					"name": "transactionFee",
					"outputs": [
						{
							"internalType": "uint256",
							"name": "",
							"type": "uint256"
						}
					],
					"stateMutability": "view",
					"type": "function"
				},
				{
					"inputs": [
						{
							"internalType": "address",
							"name": "nftAddress",
							"type": "address"
						},
						{
							"internalType": "uint256",
							"name": "tokenID",
							"type": "uint256"
						}
					],
					"name": "unlistItem",
					"outputs": [],
					"stateMutability": "nonpayable",
					"type": "function"
				},
				{
					"inputs": [],
					"name": "withdrawProceeds",
					"outputs": [],
					"stateMutability": "nonpayable",
					"type": "function"
				}
			],
			"devdoc": {
				"kind": "dev",
				"methods": {},
				"version": 1
			},
			"evm": {
				"assembly": "    /* \"marketplace.sol\":305:2191  contract Marketplace is ReentrancyGuard {... */\n  mstore(0x40, 0x80)\n  callvalue\n  dup1\n  iszero\n  tag_1\n  jumpi\n  0x00\n  dup1\n  revert\ntag_1:\n  pop\n    /* \"@openzeppelin/contracts/security/ReentrancyGuard.sol\":1716:1717  1 */\n  0x01\n    /* \"@openzeppelin/contracts/security/ReentrancyGuard.sol\":1821:1828  _status */\n  0x00\n    /* \"@openzeppelin/contracts/security/ReentrancyGuard.sol\":1821:1843  _status = _NOT_ENTERED */\n  dup2\n  swap1\n  sstore\n  pop\n    /* \"marketplace.sol\":305:2191  contract Marketplace is ReentrancyGuard {... */\n  dataSize(sub_0)\n  dup1\n  dataOffset(sub_0)\n  0x00\n  codecopy\n  0x00\n  return\nstop\n\nsub_0: assembly {\n        /* \"marketplace.sol\":305:2191  contract Marketplace is ReentrancyGuard {... */\n      mstore(0x40, 0x80)\n      jumpi(tag_1, lt(calldatasize, 0x04))\n      shr(0xe0, calldataload(0x00))\n      dup1\n      0x9038e693\n      gt\n      tag_10\n      jumpi\n      dup1\n      0x9038e693\n      eq\n      tag_6\n      jumpi\n      dup1\n      0x99bd17e4\n      eq\n      tag_7\n      jumpi\n      dup1\n      0x9ed3edf0\n      eq\n      tag_8\n      jumpi\n      dup1\n      0xfcce4883\n      eq\n      tag_9\n      jumpi\n      jump(tag_1)\n    tag_10:\n      dup1\n      0x4ddf4f8f\n      eq\n      tag_2\n      jumpi\n      dup1\n      0x7c5bb03d\n      eq\n      tag_3\n      jumpi\n      dup1\n      0x89bfd38f\n      eq\n      tag_4\n      jumpi\n      dup1\n      0x8da5cb5b\n      eq\n      tag_5\n      jumpi\n    tag_1:\n      0x00\n      dup1\n      revert\n        /* \"marketplace.sol\":1545:2005  function buyNft(address nftAddress, uint256 tokenID) public payable nonReentrant {... */\n    tag_2:\n      tag_11\n      0x04\n      dup1\n      calldatasize\n      sub\n      dup2\n      add\n      swap1\n      tag_12\n      swap2\n      swap1\n      tag_13\n      jump\t// in\n    tag_12:\n      tag_14\n      jump\t// in\n    tag_11:\n      stop\n        /* \"marketplace.sol\":568:610  mapping(uint256 => NFT) public nftListings */\n    tag_3:\n      callvalue\n      dup1\n      iszero\n      tag_15\n      jumpi\n      0x00\n      dup1\n      revert\n    tag_15:\n      pop\n      tag_16\n      0x04\n      dup1\n      calldatasize\n      sub\n      dup2\n      add\n      swap1\n      tag_17\n      swap2\n      swap1\n      tag_18\n      jump\t// in\n    tag_17:\n      tag_19\n      jump\t// in\n    tag_16:\n      mload(0x40)\n      tag_20\n      swap5\n      swap4\n      swap3\n      swap2\n      swap1\n      tag_21\n      jump\t// in\n    tag_20:\n      mload(0x40)\n      dup1\n      swap2\n      sub\n      swap1\n      return\n        /* \"marketplace.sol\":759:1207  function listItem(address nftAddress, uint256 tokenID, uint256 price) public payable nonReentrant {... */\n    tag_4:\n      tag_22\n      0x04\n      dup1\n      calldatasize\n      sub\n      dup2\n      add\n      swap1\n      tag_23\n      swap2\n      swap1\n      tag_24\n      jump\t// in\n    tag_23:\n      tag_25\n      jump\t// in\n    tag_22:\n      stop\n        /* \"marketplace.sol\":354:382  address payable public owner */\n    tag_5:\n      callvalue\n      dup1\n      iszero\n      tag_26\n      jumpi\n      0x00\n      dup1\n      revert\n    tag_26:\n      pop\n      tag_27\n      tag_28\n      jump\t// in\n    tag_27:\n      mload(0x40)\n      tag_29\n      swap2\n      swap1\n      tag_30\n      jump\t// in\n    tag_29:\n      mload(0x40)\n      dup1\n      swap2\n      sub\n      swap1\n      return\n        /* \"marketplace.sol\":2013:2188  function withdrawProceeds() public {... */\n    tag_6:\n      callvalue\n      dup1\n      iszero\n      tag_31\n      jumpi\n      0x00\n      dup1\n      revert\n    tag_31:\n      pop\n      tag_32\n      tag_33\n      jump\t// in\n    tag_32:\n      stop\n        /* \"marketplace.sol\":1215:1537  function unlistItem(address nftAddress, uint256 tokenID) public {... */\n    tag_7:\n      callvalue\n      dup1\n      iszero\n      tag_34\n      jumpi\n      0x00\n      dup1\n      revert\n    tag_34:\n      pop\n      tag_35\n      0x04\n      dup1\n      calldatasize\n      sub\n      dup2\n      add\n      swap1\n      tag_36\n      swap2\n      swap1\n      tag_13\n      jump\t// in\n    tag_36:\n      tag_37\n      jump\t// in\n    tag_35:\n      stop\n        /* \"marketplace.sol\":721:750  uint256 public transactionFee */\n    tag_8:\n      callvalue\n      dup1\n      iszero\n      tag_38\n      jumpi\n      0x00\n      dup1\n      revert\n    tag_38:\n      pop\n      tag_39\n      tag_40\n      jump\t// in\n    tag_39:\n      mload(0x40)\n      tag_41\n      swap2\n      swap1\n      tag_42\n      jump\t// in\n    tag_41:\n      mload(0x40)\n      dup1\n      swap2\n      sub\n      swap1\n      return\n        /* \"marketplace.sol\":617:657  mapping(uint256 => bool) public isListed */\n    tag_9:\n      callvalue\n      dup1\n      iszero\n      tag_43\n      jumpi\n      0x00\n      dup1\n      revert\n    tag_43:\n      pop\n      tag_44\n      0x04\n      dup1\n      calldatasize\n      sub\n      dup2\n      add\n      swap1\n      tag_45\n      swap2\n      swap1\n      tag_18\n      jump\t// in\n    tag_45:\n      tag_46\n      jump\t// in\n    tag_44:\n      mload(0x40)\n      tag_47\n      swap2\n      swap1\n      tag_48\n      jump\t// in\n    tag_47:\n      mload(0x40)\n      dup1\n      swap2\n      sub\n      swap1\n      return\n        /* \"marketplace.sol\":1545:2005  function buyNft(address nftAddress, uint256 tokenID) public payable nonReentrant {... */\n    tag_14:\n        /* \"@openzeppelin/contracts/security/ReentrancyGuard.sol\":2261:2282  _nonReentrantBefore() */\n      tag_50\n        /* \"@openzeppelin/contracts/security/ReentrancyGuard.sol\":2261:2280  _nonReentrantBefore */\n      tag_51\n        /* \"@openzeppelin/contracts/security/ReentrancyGuard.sol\":2261:2282  _nonReentrantBefore() */\n      jump\t// in\n    tag_50:\n        /* \"marketplace.sol\":1666:1670  true */\n      0x01\n        /* \"marketplace.sol\":1645:1670  isListed[tokenID] == true */\n      iszero\n      iszero\n        /* \"marketplace.sol\":1645:1653  isListed */\n      0x03\n        /* \"marketplace.sol\":1645:1662  isListed[tokenID] */\n      0x00\n        /* \"marketplace.sol\":1654:1661  tokenID */\n      dup4\n        /* \"marketplace.sol\":1645:1662  isListed[tokenID] */\n      dup2\n      mstore\n      0x20\n      add\n      swap1\n      dup2\n      mstore\n      0x20\n      add\n      0x00\n      keccak256\n      0x00\n      swap1\n      sload\n      swap1\n      0x0100\n      exp\n      swap1\n      div\n      0xff\n      and\n        /* \"marketplace.sol\":1645:1670  isListed[tokenID] == true */\n      iszero\n      iszero\n      eq\n        /* \"marketplace.sol\":1637:1685  require(isListed[tokenID] == true, 'Not listed') */\n      tag_53\n      jumpi\n      mload(0x40)\n      0x08c379a000000000000000000000000000000000000000000000000000000000\n      dup2\n      mstore\n      0x04\n      add\n      tag_54\n      swap1\n      tag_55\n      jump\t// in\n    tag_54:\n      mload(0x40)\n      dup1\n      swap2\n      sub\n      swap1\n      revert\n    tag_53:\n        /* \"marketplace.sol\":1696:1711  NFT storage nft */\n      0x00\n        /* \"marketplace.sol\":1714:1725  nftListings */\n      0x02\n        /* \"marketplace.sol\":1714:1734  nftListings[tokenID] */\n      0x00\n        /* \"marketplace.sol\":1726:1733  tokenID */\n      dup4\n        /* \"marketplace.sol\":1714:1734  nftListings[tokenID] */\n      dup2\n      mstore\n      0x20\n      add\n      swap1\n      dup2\n      mstore\n      0x20\n      add\n      0x00\n      keccak256\n        /* \"marketplace.sol\":1696:1734  NFT storage nft = nftListings[tokenID] */\n      swap1\n      pop\n        /* \"marketplace.sol\":1766:1769  nft */\n      dup1\n        /* \"marketplace.sol\":1766:1775  nft.price */\n      0x03\n      add\n      sload\n        /* \"marketplace.sol\":1753:1762  msg.value */\n      callvalue\n        /* \"marketplace.sol\":1753:1775  msg.value == nft.price */\n      eq\n        /* \"marketplace.sol\":1745:1796  require(msg.value == nft.price, \"Not enough money\") */\n      tag_56\n      jumpi\n      mload(0x40)\n      0x08c379a000000000000000000000000000000000000000000000000000000000\n      dup2\n      mstore\n      0x04\n      add\n      tag_57\n      swap1\n      tag_58\n      jump\t// in\n    tag_57:\n      mload(0x40)\n      dup1\n      swap2\n      sub\n      swap1\n      revert\n    tag_56:\n        /* \"marketplace.sol\":1836:1845  msg.value */\n      callvalue\n        /* \"marketplace.sol\":1807:1821  sellerProceeds */\n      0x04\n        /* \"marketplace.sol\":1807:1832  sellerProceeds[nft.owner] */\n      0x00\n        /* \"marketplace.sol\":1822:1825  nft */\n      dup4\n        /* \"marketplace.sol\":1822:1831  nft.owner */\n      0x02\n      add\n      0x00\n      swap1\n      sload\n      swap1\n      0x0100\n      exp\n      swap1\n      div\n      0xffffffffffffffffffffffffffffffffffffffff\n      and\n        /* \"marketplace.sol\":1807:1832  sellerProceeds[nft.owner] */\n      0xffffffffffffffffffffffffffffffffffffffff\n      and\n      0xffffffffffffffffffffffffffffffffffffffff\n      and\n      dup2\n      mstore\n      0x20\n      add\n      swap1\n      dup2\n      mstore\n      0x20\n      add\n      0x00\n      keccak256\n      0x00\n        /* \"marketplace.sol\":1807:1845  sellerProceeds[nft.owner] += msg.value */\n      dup3\n      dup3\n      sload\n      tag_59\n      swap2\n      swap1\n      tag_60\n      jump\t// in\n    tag_59:\n      swap3\n      pop\n      pop\n      dup2\n      swap1\n      sstore\n      pop\n        /* \"marketplace.sol\":1864:1874  nftAddress */\n      dup3\n        /* \"marketplace.sol\":1856:1888  IERC721(nftAddress).transferFrom */\n      0xffffffffffffffffffffffffffffffffffffffff\n      and\n      0x23b872dd\n        /* \"marketplace.sol\":1897:1901  this */\n      address\n        /* \"marketplace.sol\":1904:1914  msg.sender */\n      caller\n        /* \"marketplace.sol\":1916:1919  nft */\n      dup5\n        /* \"marketplace.sol\":1916:1927  nft.tokenID */\n      0x01\n      add\n      sload\n        /* \"marketplace.sol\":1856:1928  IERC721(nftAddress).transferFrom(address(this), msg.sender, nft.tokenID) */\n      mload(0x40)\n      dup5\n      0xffffffff\n      and\n      0xe0\n      shl\n      dup2\n      mstore\n      0x04\n      add\n      tag_61\n      swap4\n      swap3\n      swap2\n      swap1\n      tag_62\n      jump\t// in\n    tag_61:\n      0x00\n      mload(0x40)\n      dup1\n      dup4\n      sub\n      dup2\n      0x00\n      dup8\n      dup1\n      extcodesize\n      iszero\n      dup1\n      iszero\n      tag_63\n      jumpi\n      0x00\n      dup1\n      revert\n    tag_63:\n      pop\n      gas\n      call\n      iszero\n      dup1\n      iszero\n      tag_65\n      jumpi\n      returndatasize\n      0x00\n      dup1\n      returndatacopy\n      revert(0x00, returndatasize)\n    tag_65:\n      pop\n      pop\n      pop\n      pop\n        /* \"marketplace.sol\":1951:1961  msg.sender */\n      caller\n        /* \"marketplace.sol\":1939:1942  nft */\n      dup2\n        /* \"marketplace.sol\":1939:1948  nft.owner */\n      0x02\n      add\n      0x00\n        /* \"marketplace.sol\":1939:1961  nft.owner = msg.sender */\n      0x0100\n      exp\n      dup2\n      sload\n      dup2\n      0xffffffffffffffffffffffffffffffffffffffff\n      mul\n      not\n      and\n      swap1\n      dup4\n      0xffffffffffffffffffffffffffffffffffffffff\n      and\n      mul\n      or\n      swap1\n      sstore\n      pop\n        /* \"marketplace.sol\":1992:1997  false */\n      0x00\n        /* \"marketplace.sol\":1972:1980  isListed */\n      0x03\n        /* \"marketplace.sol\":1972:1989  isListed[tokenID] */\n      0x00\n        /* \"marketplace.sol\":1981:1988  tokenID */\n      dup5\n        /* \"marketplace.sol\":1972:1989  isListed[tokenID] */\n      dup2\n      mstore\n      0x20\n      add\n      swap1\n      dup2\n      mstore\n      0x20\n      add\n      0x00\n      keccak256\n      0x00\n        /* \"marketplace.sol\":1972:1997  isListed[tokenID] = false */\n      0x0100\n      exp\n      dup2\n      sload\n      dup2\n      0xff\n      mul\n      not\n      and\n      swap1\n      dup4\n      iszero\n      iszero\n      mul\n      or\n      swap1\n      sstore\n      pop\n        /* \"marketplace.sol\":1626:2005  {... */\n      pop\n        /* \"@openzeppelin/contracts/security/ReentrancyGuard.sol\":2303:2323  _nonReentrantAfter() */\n      tag_66\n        /* \"@openzeppelin/contracts/security/ReentrancyGuard.sol\":2303:2321  _nonReentrantAfter */\n      tag_67\n        /* \"@openzeppelin/contracts/security/ReentrancyGuard.sol\":2303:2323  _nonReentrantAfter() */\n      jump\t// in\n    tag_66:\n        /* \"marketplace.sol\":1545:2005  function buyNft(address nftAddress, uint256 tokenID) public payable nonReentrant {... */\n      pop\n      pop\n      jump\t// out\n        /* \"marketplace.sol\":568:610  mapping(uint256 => NFT) public nftListings */\n    tag_19:\n      mstore(0x20, 0x02)\n      dup1\n      0x00\n      mstore\n      keccak256(0x00, 0x40)\n      0x00\n      swap2\n      pop\n      swap1\n      pop\n      dup1\n      0x00\n      add\n      0x00\n      swap1\n      sload\n      swap1\n      0x0100\n      exp\n      swap1\n      div\n      0xffffffffffffffffffffffffffffffffffffffff\n      and\n      swap1\n      dup1\n      0x01\n      add\n      sload\n      swap1\n      dup1\n      0x02\n      add\n      0x00\n      swap1\n      sload\n      swap1\n      0x0100\n      exp\n      swap1\n      div\n      0xffffffffffffffffffffffffffffffffffffffff\n      and\n      swap1\n      dup1\n      0x03\n      add\n      sload\n      swap1\n      pop\n      dup5\n      jump\t// out\n        /* \"marketplace.sol\":759:1207  function listItem(address nftAddress, uint256 tokenID, uint256 price) public payable nonReentrant {... */\n    tag_25:\n        /* \"@openzeppelin/contracts/security/ReentrancyGuard.sol\":2261:2282  _nonReentrantBefore() */\n      tag_69\n        /* \"@openzeppelin/contracts/security/ReentrancyGuard.sol\":2261:2280  _nonReentrantBefore */\n      tag_51\n        /* \"@openzeppelin/contracts/security/ReentrancyGuard.sol\":2261:2282  _nonReentrantBefore() */\n      jump\t// in\n    tag_69:\n        /* \"marketplace.sol\":884:885  0 */\n      0x00\n        /* \"marketplace.sol\":876:881  price */\n      dup2\n        /* \"marketplace.sol\":876:885  price > 0 */\n      gt\n        /* \"marketplace.sol\":868:922  require(price > 0, 'Price needs to be greater than 0') */\n      tag_71\n      jumpi\n      mload(0x40)\n      0x08c379a000000000000000000000000000000000000000000000000000000000\n      dup2\n      mstore\n      0x04\n      add\n      tag_72\n      swap1\n      tag_73\n      jump\t// in\n    tag_72:\n      mload(0x40)\n      dup1\n      swap2\n      sub\n      swap1\n      revert\n    tag_71:\n        /* \"marketplace.sol\":954:968  transactionFee */\n      sload(0x05)\n        /* \"marketplace.sol\":941:950  msg.value */\n      callvalue\n        /* \"marketplace.sol\":941:968  msg.value == transactionFee */\n      eq\n        /* \"marketplace.sol\":933:1007  require(msg.value == transactionFee, 'Please include the transaction fee') */\n      tag_74\n      jumpi\n      mload(0x40)\n      0x08c379a000000000000000000000000000000000000000000000000000000000\n      dup2\n      mstore\n      0x04\n      add\n      tag_75\n      swap1\n      tag_76\n      jump\t// in\n    tag_75:\n      mload(0x40)\n      dup1\n      swap2\n      sub\n      swap1\n      revert\n    tag_74:\n        /* \"marketplace.sol\":1026:1036  nftAddress */\n      dup3\n        /* \"marketplace.sol\":1018:1050  IERC721(nftAddress).transferFrom */\n      0xffffffffffffffffffffffffffffffffffffffff\n      and\n      0x23b872dd\n        /* \"marketplace.sol\":1051:1061  msg.sender */\n      caller\n        /* \"marketplace.sol\":1071:1075  this */\n      address\n        /* \"marketplace.sol\":1078:1085  tokenID */\n      dup6\n        /* \"marketplace.sol\":1018:1086  IERC721(nftAddress).transferFrom(msg.sender, address(this), tokenID) */\n      mload(0x40)\n      dup5\n      0xffffffff\n      and\n      0xe0\n      shl\n      dup2\n      mstore\n      0x04\n      add\n      tag_77\n      swap4\n      swap3\n      swap2\n      swap1\n      tag_62\n      jump\t// in\n    tag_77:\n      0x00\n      mload(0x40)\n      dup1\n      dup4\n      sub\n      dup2\n      0x00\n      dup8\n      dup1\n      extcodesize\n      iszero\n      dup1\n      iszero\n      tag_78\n      jumpi\n      0x00\n      dup1\n      revert\n    tag_78:\n      pop\n      gas\n      call\n      iszero\n      dup1\n      iszero\n      tag_80\n      jumpi\n      returndatasize\n      0x00\n      dup1\n      returndatacopy\n      revert(0x00, returndatasize)\n    tag_80:\n      pop\n      pop\n      pop\n      pop\n        /* \"marketplace.sol\":1120:1163  NFT(nftAddress, tokenID, msg.sender, price) */\n      mload(0x40)\n      dup1\n      0x80\n      add\n      0x40\n      mstore\n      dup1\n        /* \"marketplace.sol\":1124:1134  nftAddress */\n      dup5\n        /* \"marketplace.sol\":1120:1163  NFT(nftAddress, tokenID, msg.sender, price) */\n      0xffffffffffffffffffffffffffffffffffffffff\n      and\n      dup2\n      mstore\n      0x20\n      add\n        /* \"marketplace.sol\":1136:1143  tokenID */\n      dup4\n        /* \"marketplace.sol\":1120:1163  NFT(nftAddress, tokenID, msg.sender, price) */\n      dup2\n      mstore\n      0x20\n      add\n        /* \"marketplace.sol\":1145:1155  msg.sender */\n      caller\n        /* \"marketplace.sol\":1120:1163  NFT(nftAddress, tokenID, msg.sender, price) */\n      0xffffffffffffffffffffffffffffffffffffffff\n      and\n      dup2\n      mstore\n      0x20\n      add\n        /* \"marketplace.sol\":1157:1162  price */\n      dup3\n        /* \"marketplace.sol\":1120:1163  NFT(nftAddress, tokenID, msg.sender, price) */\n      dup2\n      mstore\n      pop\n        /* \"marketplace.sol\":1097:1108  nftListings */\n      0x02\n        /* \"marketplace.sol\":1097:1117  nftListings[tokenID] */\n      0x00\n        /* \"marketplace.sol\":1109:1116  tokenID */\n      dup5\n        /* \"marketplace.sol\":1097:1117  nftListings[tokenID] */\n      dup2\n      mstore\n      0x20\n      add\n      swap1\n      dup2\n      mstore\n      0x20\n      add\n      0x00\n      keccak256\n        /* \"marketplace.sol\":1097:1163  nftListings[tokenID] = NFT(nftAddress, tokenID, msg.sender, price) */\n      0x00\n      dup3\n      add\n      mload\n      dup2\n      0x00\n      add\n      exp(0x0100, 0x00)\n      dup2\n      sload\n      dup2\n      0xffffffffffffffffffffffffffffffffffffffff\n      mul\n      not\n      and\n      swap1\n      dup4\n      0xffffffffffffffffffffffffffffffffffffffff\n      and\n      mul\n      or\n      swap1\n      sstore\n      pop\n      0x20\n      dup3\n      add\n      mload\n      dup2\n      0x01\n      add\n      sstore\n      0x40\n      dup3\n      add\n      mload\n      dup2\n      0x02\n      add\n      exp(0x0100, 0x00)\n      dup2\n      sload\n      dup2\n      0xffffffffffffffffffffffffffffffffffffffff\n      mul\n      not\n      and\n      swap1\n      dup4\n      0xffffffffffffffffffffffffffffffffffffffff\n      and\n      mul\n      or\n      swap1\n      sstore\n      pop\n      0x60\n      dup3\n      add\n      mload\n      dup2\n      0x03\n      add\n      sstore\n      swap1\n      pop\n      pop\n        /* \"marketplace.sol\":1195:1199  true */\n      0x01\n        /* \"marketplace.sol\":1175:1183  isListed */\n      0x03\n        /* \"marketplace.sol\":1175:1192  isListed[tokenID] */\n      0x00\n        /* \"marketplace.sol\":1184:1191  tokenID */\n      dup5\n        /* \"marketplace.sol\":1175:1192  isListed[tokenID] */\n      dup2\n      mstore\n      0x20\n      add\n      swap1\n      dup2\n      mstore\n      0x20\n      add\n      0x00\n      keccak256\n      0x00\n        /* \"marketplace.sol\":1175:1199  isListed[tokenID] = true */\n      0x0100\n      exp\n      dup2\n      sload\n      dup2\n      0xff\n      mul\n      not\n      and\n      swap1\n      dup4\n      iszero\n      iszero\n      mul\n      or\n      swap1\n      sstore\n      pop\n        /* \"@openzeppelin/contracts/security/ReentrancyGuard.sol\":2303:2323  _nonReentrantAfter() */\n      tag_81\n        /* \"@openzeppelin/contracts/security/ReentrancyGuard.sol\":2303:2321  _nonReentrantAfter */\n      tag_67\n        /* \"@openzeppelin/contracts/security/ReentrancyGuard.sol\":2303:2323  _nonReentrantAfter() */\n      jump\t// in\n    tag_81:\n        /* \"marketplace.sol\":759:1207  function listItem(address nftAddress, uint256 tokenID, uint256 price) public payable nonReentrant {... */\n      pop\n      pop\n      pop\n      jump\t// out\n        /* \"marketplace.sol\":354:382  address payable public owner */\n    tag_28:\n      0x01\n      0x00\n      swap1\n      sload\n      swap1\n      0x0100\n      exp\n      swap1\n      div\n      0xffffffffffffffffffffffffffffffffffffffff\n      and\n      dup2\n      jump\t// out\n        /* \"marketplace.sol\":2013:2188  function withdrawProceeds() public {... */\n    tag_33:\n        /* \"marketplace.sol\":2059:2068  uint256 b */\n      0x00\n        /* \"marketplace.sol\":2071:2085  sellerProceeds */\n      0x04\n        /* \"marketplace.sol\":2071:2097  sellerProceeds[msg.sender] */\n      0x00\n        /* \"marketplace.sol\":2086:2096  msg.sender */\n      caller\n        /* \"marketplace.sol\":2071:2097  sellerProceeds[msg.sender] */\n      0xffffffffffffffffffffffffffffffffffffffff\n      and\n      0xffffffffffffffffffffffffffffffffffffffff\n      and\n      dup2\n      mstore\n      0x20\n      add\n      swap1\n      dup2\n      mstore\n      0x20\n      add\n      0x00\n      keccak256\n      sload\n        /* \"marketplace.sol\":2059:2097  uint256 b = sellerProceeds[msg.sender] */\n      swap1\n      pop\n        /* \"marketplace.sol\":2137:2138  0 */\n      0x00\n        /* \"marketplace.sol\":2108:2122  sellerProceeds */\n      0x04\n        /* \"marketplace.sol\":2108:2134  sellerProceeds[msg.sender] */\n      0x00\n        /* \"marketplace.sol\":2123:2133  msg.sender */\n      caller\n        /* \"marketplace.sol\":2108:2134  sellerProceeds[msg.sender] */\n      0xffffffffffffffffffffffffffffffffffffffff\n      and\n      0xffffffffffffffffffffffffffffffffffffffff\n      and\n      dup2\n      mstore\n      0x20\n      add\n      swap1\n      dup2\n      mstore\n      0x20\n      add\n      0x00\n      keccak256\n        /* \"marketplace.sol\":2108:2138  sellerProceeds[msg.sender] = 0 */\n      dup2\n      swap1\n      sstore\n      pop\n        /* \"marketplace.sol\":2157:2167  msg.sender */\n      caller\n        /* \"marketplace.sol\":2149:2177  payable(msg.sender).transfer */\n      0xffffffffffffffffffffffffffffffffffffffff\n      and\n        /* \"marketplace.sol\":2149:2180  payable(msg.sender).transfer(b) */\n      0x08fc\n        /* \"marketplace.sol\":2178:2179  b */\n      dup3\n        /* \"marketplace.sol\":2149:2180  payable(msg.sender).transfer(b) */\n      swap1\n      dup2\n      iszero\n      mul\n      swap1\n      mload(0x40)\n      0x00\n      mload(0x40)\n      dup1\n      dup4\n      sub\n      dup2\n      dup6\n      dup9\n      dup9\n      call\n      swap4\n      pop\n      pop\n      pop\n      pop\n      iszero\n      dup1\n      iszero\n      tag_84\n      jumpi\n      returndatasize\n      0x00\n      dup1\n      returndatacopy\n      revert(0x00, returndatasize)\n    tag_84:\n      pop\n        /* \"marketplace.sol\":2048:2188  {... */\n      pop\n        /* \"marketplace.sol\":2013:2188  function withdrawProceeds() public {... */\n      jump\t// out\n        /* \"marketplace.sol\":1215:1537  function unlistItem(address nftAddress, uint256 tokenID) public {... */\n    tag_37:\n        /* \"marketplace.sol\":1319:1323  true */\n      0x01\n        /* \"marketplace.sol\":1298:1323  isListed[tokenID] == true */\n      iszero\n      iszero\n        /* \"marketplace.sol\":1298:1306  isListed */\n      0x03\n        /* \"marketplace.sol\":1298:1315  isListed[tokenID] */\n      0x00\n        /* \"marketplace.sol\":1307:1314  tokenID */\n      dup4\n        /* \"marketplace.sol\":1298:1315  isListed[tokenID] */\n      dup2\n      mstore\n      0x20\n      add\n      swap1\n      dup2\n      mstore\n      0x20\n      add\n      0x00\n      keccak256\n      0x00\n      swap1\n      sload\n      swap1\n      0x0100\n      exp\n      swap1\n      div\n      0xff\n      and\n        /* \"marketplace.sol\":1298:1323  isListed[tokenID] == true */\n      iszero\n      iszero\n      eq\n        /* \"marketplace.sol\":1290:1338  require(isListed[tokenID] == true, 'Not listed') */\n      tag_86\n      jumpi\n      mload(0x40)\n      0x08c379a000000000000000000000000000000000000000000000000000000000\n      dup2\n      mstore\n      0x04\n      add\n      tag_87\n      swap1\n      tag_55\n      jump\t// in\n    tag_87:\n      mload(0x40)\n      dup1\n      swap2\n      sub\n      swap1\n      revert\n    tag_86:\n        /* \"marketplace.sol\":1387:1397  msg.sender */\n      caller\n        /* \"marketplace.sol\":1357:1397  nftListings[tokenID].owner == msg.sender */\n      0xffffffffffffffffffffffffffffffffffffffff\n      and\n        /* \"marketplace.sol\":1357:1368  nftListings */\n      0x02\n        /* \"marketplace.sol\":1357:1377  nftListings[tokenID] */\n      0x00\n        /* \"marketplace.sol\":1369:1376  tokenID */\n      dup4\n        /* \"marketplace.sol\":1357:1377  nftListings[tokenID] */\n      dup2\n      mstore\n      0x20\n      add\n      swap1\n      dup2\n      mstore\n      0x20\n      add\n      0x00\n      keccak256\n        /* \"marketplace.sol\":1357:1383  nftListings[tokenID].owner */\n      0x02\n      add\n      0x00\n      swap1\n      sload\n      swap1\n      0x0100\n      exp\n      swap1\n      div\n      0xffffffffffffffffffffffffffffffffffffffff\n      and\n        /* \"marketplace.sol\":1357:1397  nftListings[tokenID].owner == msg.sender */\n      0xffffffffffffffffffffffffffffffffffffffff\n      and\n      eq\n        /* \"marketplace.sol\":1349:1414  require(nftListings[tokenID].owner == msg.sender, 'Not your nft') */\n      tag_88\n      jumpi\n      mload(0x40)\n      0x08c379a000000000000000000000000000000000000000000000000000000000\n      dup2\n      mstore\n      0x04\n      add\n      tag_89\n      swap1\n      tag_90\n      jump\t// in\n    tag_89:\n      mload(0x40)\n      dup1\n      swap2\n      sub\n      swap1\n      revert\n    tag_88:\n        /* \"marketplace.sol\":1433:1443  nftAddress */\n      dup2\n        /* \"marketplace.sol\":1425:1457  IERC721(nftAddress).transferFrom */\n      0xffffffffffffffffffffffffffffffffffffffff\n      and\n      0x23b872dd\n        /* \"marketplace.sol\":1466:1470  this */\n      address\n        /* \"marketplace.sol\":1473:1483  msg.sender */\n      caller\n        /* \"marketplace.sol\":1485:1492  tokenID */\n      dup5\n        /* \"marketplace.sol\":1425:1493  IERC721(nftAddress).transferFrom(address(this), msg.sender, tokenID) */\n      mload(0x40)\n      dup5\n      0xffffffff\n      and\n      0xe0\n      shl\n      dup2\n      mstore\n      0x04\n      add\n      tag_91\n      swap4\n      swap3\n      swap2\n      swap1\n      tag_62\n      jump\t// in\n    tag_91:\n      0x00\n      mload(0x40)\n      dup1\n      dup4\n      sub\n      dup2\n      0x00\n      dup8\n      dup1\n      extcodesize\n      iszero\n      dup1\n      iszero\n      tag_92\n      jumpi\n      0x00\n      dup1\n      revert\n    tag_92:\n      pop\n      gas\n      call\n      iszero\n      dup1\n      iszero\n      tag_94\n      jumpi\n      returndatasize\n      0x00\n      dup1\n      returndatacopy\n      revert(0x00, returndatasize)\n    tag_94:\n      pop\n      pop\n      pop\n      pop\n        /* \"marketplace.sol\":1524:1529  false */\n      0x00\n        /* \"marketplace.sol\":1504:1512  isListed */\n      0x03\n        /* \"marketplace.sol\":1504:1521  isListed[tokenID] */\n      0x00\n        /* \"marketplace.sol\":1513:1520  tokenID */\n      dup4\n        /* \"marketplace.sol\":1504:1521  isListed[tokenID] */\n      dup2\n      mstore\n      0x20\n      add\n      swap1\n      dup2\n      mstore\n      0x20\n      add\n      0x00\n      keccak256\n      0x00\n        /* \"marketplace.sol\":1504:1529  isListed[tokenID] = false */\n      0x0100\n      exp\n      dup2\n      sload\n      dup2\n      0xff\n      mul\n      not\n      and\n      swap1\n      dup4\n      iszero\n      iszero\n      mul\n      or\n      swap1\n      sstore\n      pop\n        /* \"marketplace.sol\":1215:1537  function unlistItem(address nftAddress, uint256 tokenID) public {... */\n      pop\n      pop\n      jump\t// out\n        /* \"marketplace.sol\":721:750  uint256 public transactionFee */\n    tag_40:\n      sload(0x05)\n      dup2\n      jump\t// out\n        /* \"marketplace.sol\":617:657  mapping(uint256 => bool) public isListed */\n    tag_46:\n      mstore(0x20, 0x03)\n      dup1\n      0x00\n      mstore\n      keccak256(0x00, 0x40)\n      0x00\n      swap2\n      pop\n      sload\n      swap1\n      0x0100\n      exp\n      swap1\n      div\n      0xff\n      and\n      dup2\n      jump\t// out\n        /* \"@openzeppelin/contracts/security/ReentrancyGuard.sol\":2336:2623  function _nonReentrantBefore() private {... */\n    tag_51:\n        /* \"@openzeppelin/contracts/security/ReentrancyGuard.sol\":1759:1760  2 */\n      0x02\n        /* \"@openzeppelin/contracts/security/ReentrancyGuard.sol\":2468:2475  _status */\n      sload(0x00)\n        /* \"@openzeppelin/contracts/security/ReentrancyGuard.sol\":2468:2487  _status != _ENTERED */\n      sub\n        /* \"@openzeppelin/contracts/security/ReentrancyGuard.sol\":2460:2523  require(_status != _ENTERED, \"ReentrancyGuard: reentrant call\") */\n      tag_96\n      jumpi\n      mload(0x40)\n      0x08c379a000000000000000000000000000000000000000000000000000000000\n      dup2\n      mstore\n      0x04\n      add\n      tag_97\n      swap1\n      tag_98\n      jump\t// in\n    tag_97:\n      mload(0x40)\n      dup1\n      swap2\n      sub\n      swap1\n      revert\n    tag_96:\n        /* \"@openzeppelin/contracts/security/ReentrancyGuard.sol\":1759:1760  2 */\n      0x02\n        /* \"@openzeppelin/contracts/security/ReentrancyGuard.sol\":2598:2605  _status */\n      0x00\n        /* \"@openzeppelin/contracts/security/ReentrancyGuard.sol\":2598:2616  _status = _ENTERED */\n      dup2\n      swap1\n      sstore\n      pop\n        /* \"@openzeppelin/contracts/security/ReentrancyGuard.sol\":2336:2623  function _nonReentrantBefore() private {... */\n      jump\t// out\n        /* \"@openzeppelin/contracts/security/ReentrancyGuard.sol\":2629:2838  function _nonReentrantAfter() private {... */\n    tag_67:\n        /* \"@openzeppelin/contracts/security/ReentrancyGuard.sol\":1716:1717  1 */\n      0x01\n        /* \"@openzeppelin/contracts/security/ReentrancyGuard.sol\":2809:2816  _status */\n      0x00\n        /* \"@openzeppelin/contracts/security/ReentrancyGuard.sol\":2809:2831  _status = _NOT_ENTERED */\n      dup2\n      swap1\n      sstore\n      pop\n        /* \"@openzeppelin/contracts/security/ReentrancyGuard.sol\":2629:2838  function _nonReentrantAfter() private {... */\n      jump\t// out\n        /* \"#utility.yul\":88:205   */\n    tag_101:\n        /* \"#utility.yul\":197:198   */\n      0x00\n        /* \"#utility.yul\":194:195   */\n      dup1\n        /* \"#utility.yul\":187:199   */\n      revert\n        /* \"#utility.yul\":334:460   */\n    tag_103:\n        /* \"#utility.yul\":371:378   */\n      0x00\n        /* \"#utility.yul\":411:453   */\n      0xffffffffffffffffffffffffffffffffffffffff\n        /* \"#utility.yul\":404:409   */\n      dup3\n        /* \"#utility.yul\":400:454   */\n      and\n        /* \"#utility.yul\":389:454   */\n      swap1\n      pop\n        /* \"#utility.yul\":334:460   */\n      swap2\n      swap1\n      pop\n      jump\t// out\n        /* \"#utility.yul\":466:562   */\n    tag_104:\n        /* \"#utility.yul\":503:510   */\n      0x00\n        /* \"#utility.yul\":532:556   */\n      tag_136\n        /* \"#utility.yul\":550:555   */\n      dup3\n        /* \"#utility.yul\":532:556   */\n      tag_103\n      jump\t// in\n    tag_136:\n        /* \"#utility.yul\":521:556   */\n      swap1\n      pop\n        /* \"#utility.yul\":466:562   */\n      swap2\n      swap1\n      pop\n      jump\t// out\n        /* \"#utility.yul\":568:690   */\n    tag_105:\n        /* \"#utility.yul\":641:665   */\n      tag_138\n        /* \"#utility.yul\":659:664   */\n      dup2\n        /* \"#utility.yul\":641:665   */\n      tag_104\n      jump\t// in\n    tag_138:\n        /* \"#utility.yul\":634:639   */\n      dup2\n        /* \"#utility.yul\":631:666   */\n      eq\n        /* \"#utility.yul\":621:684   */\n      tag_139\n      jumpi\n        /* \"#utility.yul\":680:681   */\n      0x00\n        /* \"#utility.yul\":677:678   */\n      dup1\n        /* \"#utility.yul\":670:682   */\n      revert\n        /* \"#utility.yul\":621:684   */\n    tag_139:\n        /* \"#utility.yul\":568:690   */\n      pop\n      jump\t// out\n        /* \"#utility.yul\":696:835   */\n    tag_106:\n        /* \"#utility.yul\":742:747   */\n      0x00\n        /* \"#utility.yul\":780:786   */\n      dup2\n        /* \"#utility.yul\":767:787   */\n      calldataload\n        /* \"#utility.yul\":758:787   */\n      swap1\n      pop\n        /* \"#utility.yul\":796:829   */\n      tag_141\n        /* \"#utility.yul\":823:828   */\n      dup2\n        /* \"#utility.yul\":796:829   */\n      tag_105\n      jump\t// in\n    tag_141:\n        /* \"#utility.yul\":696:835   */\n      swap3\n      swap2\n      pop\n      pop\n      jump\t// out\n        /* \"#utility.yul\":841:918   */\n    tag_107:\n        /* \"#utility.yul\":878:885   */\n      0x00\n        /* \"#utility.yul\":907:912   */\n      dup2\n        /* \"#utility.yul\":896:912   */\n      swap1\n      pop\n        /* \"#utility.yul\":841:918   */\n      swap2\n      swap1\n      pop\n      jump\t// out\n        /* \"#utility.yul\":924:1046   */\n    tag_108:\n        /* \"#utility.yul\":997:1021   */\n      tag_144\n        /* \"#utility.yul\":1015:1020   */\n      dup2\n        /* \"#utility.yul\":997:1021   */\n      tag_107\n      jump\t// in\n    tag_144:\n        /* \"#utility.yul\":990:995   */\n      dup2\n        /* \"#utility.yul\":987:1022   */\n      eq\n        /* \"#utility.yul\":977:1040   */\n      tag_145\n      jumpi\n        /* \"#utility.yul\":1036:1037   */\n      0x00\n        /* \"#utility.yul\":1033:1034   */\n      dup1\n        /* \"#utility.yul\":1026:1038   */\n      revert\n        /* \"#utility.yul\":977:1040   */\n    tag_145:\n        /* \"#utility.yul\":924:1046   */\n      pop\n      jump\t// out\n        /* \"#utility.yul\":1052:1191   */\n    tag_109:\n        /* \"#utility.yul\":1098:1103   */\n      0x00\n        /* \"#utility.yul\":1136:1142   */\n      dup2\n        /* \"#utility.yul\":1123:1143   */\n      calldataload\n        /* \"#utility.yul\":1114:1143   */\n      swap1\n      pop\n        /* \"#utility.yul\":1152:1185   */\n      tag_147\n        /* \"#utility.yul\":1179:1184   */\n      dup2\n        /* \"#utility.yul\":1152:1185   */\n      tag_108\n      jump\t// in\n    tag_147:\n        /* \"#utility.yul\":1052:1191   */\n      swap3\n      swap2\n      pop\n      pop\n      jump\t// out\n        /* \"#utility.yul\":1197:1671   */\n    tag_13:\n        /* \"#utility.yul\":1265:1271   */\n      0x00\n        /* \"#utility.yul\":1273:1279   */\n      dup1\n        /* \"#utility.yul\":1322:1324   */\n      0x40\n        /* \"#utility.yul\":1310:1319   */\n      dup4\n        /* \"#utility.yul\":1301:1308   */\n      dup6\n        /* \"#utility.yul\":1297:1320   */\n      sub\n        /* \"#utility.yul\":1293:1325   */\n      slt\n        /* \"#utility.yul\":1290:1409   */\n      iszero\n      tag_149\n      jumpi\n        /* \"#utility.yul\":1328:1407   */\n      tag_150\n      tag_101\n      jump\t// in\n    tag_150:\n        /* \"#utility.yul\":1290:1409   */\n    tag_149:\n        /* \"#utility.yul\":1448:1449   */\n      0x00\n        /* \"#utility.yul\":1473:1526   */\n      tag_151\n        /* \"#utility.yul\":1518:1525   */\n      dup6\n        /* \"#utility.yul\":1509:1515   */\n      dup3\n        /* \"#utility.yul\":1498:1507   */\n      dup7\n        /* \"#utility.yul\":1494:1516   */\n      add\n        /* \"#utility.yul\":1473:1526   */\n      tag_106\n      jump\t// in\n    tag_151:\n        /* \"#utility.yul\":1463:1526   */\n      swap3\n      pop\n        /* \"#utility.yul\":1419:1536   */\n      pop\n        /* \"#utility.yul\":1575:1577   */\n      0x20\n        /* \"#utility.yul\":1601:1654   */\n      tag_152\n        /* \"#utility.yul\":1646:1653   */\n      dup6\n        /* \"#utility.yul\":1637:1643   */\n      dup3\n        /* \"#utility.yul\":1626:1635   */\n      dup7\n        /* \"#utility.yul\":1622:1644   */\n      add\n        /* \"#utility.yul\":1601:1654   */\n      tag_109\n      jump\t// in\n    tag_152:\n        /* \"#utility.yul\":1591:1654   */\n      swap2\n      pop\n        /* \"#utility.yul\":1546:1664   */\n      pop\n        /* \"#utility.yul\":1197:1671   */\n      swap3\n      pop\n      swap3\n      swap1\n      pop\n      jump\t// out\n        /* \"#utility.yul\":1677:2006   */\n    tag_18:\n        /* \"#utility.yul\":1736:1742   */\n      0x00\n        /* \"#utility.yul\":1785:1787   */\n      0x20\n        /* \"#utility.yul\":1773:1782   */\n      dup3\n        /* \"#utility.yul\":1764:1771   */\n      dup5\n        /* \"#utility.yul\":1760:1783   */\n      sub\n        /* \"#utility.yul\":1756:1788   */\n      slt\n        /* \"#utility.yul\":1753:1872   */\n      iszero\n      tag_154\n      jumpi\n        /* \"#utility.yul\":1791:1870   */\n      tag_155\n      tag_101\n      jump\t// in\n    tag_155:\n        /* \"#utility.yul\":1753:1872   */\n    tag_154:\n        /* \"#utility.yul\":1911:1912   */\n      0x00\n        /* \"#utility.yul\":1936:1989   */\n      tag_156\n        /* \"#utility.yul\":1981:1988   */\n      dup5\n        /* \"#utility.yul\":1972:1978   */\n      dup3\n        /* \"#utility.yul\":1961:1970   */\n      dup6\n        /* \"#utility.yul\":1957:1979   */\n      add\n        /* \"#utility.yul\":1936:1989   */\n      tag_109\n      jump\t// in\n    tag_156:\n        /* \"#utility.yul\":1926:1989   */\n      swap2\n      pop\n        /* \"#utility.yul\":1882:1999   */\n      pop\n        /* \"#utility.yul\":1677:2006   */\n      swap3\n      swap2\n      pop\n      pop\n      jump\t// out\n        /* \"#utility.yul\":2012:2130   */\n    tag_110:\n        /* \"#utility.yul\":2099:2123   */\n      tag_158\n        /* \"#utility.yul\":2117:2122   */\n      dup2\n        /* \"#utility.yul\":2099:2123   */\n      tag_104\n      jump\t// in\n    tag_158:\n        /* \"#utility.yul\":2094:2097   */\n      dup3\n        /* \"#utility.yul\":2087:2124   */\n      mstore\n        /* \"#utility.yul\":2012:2130   */\n      pop\n      pop\n      jump\t// out\n        /* \"#utility.yul\":2136:2254   */\n    tag_111:\n        /* \"#utility.yul\":2223:2247   */\n      tag_160\n        /* \"#utility.yul\":2241:2246   */\n      dup2\n        /* \"#utility.yul\":2223:2247   */\n      tag_107\n      jump\t// in\n    tag_160:\n        /* \"#utility.yul\":2218:2221   */\n      dup3\n        /* \"#utility.yul\":2211:2248   */\n      mstore\n        /* \"#utility.yul\":2136:2254   */\n      pop\n      pop\n      jump\t// out\n        /* \"#utility.yul\":2260:2813   */\n    tag_21:\n        /* \"#utility.yul\":2437:2441   */\n      0x00\n        /* \"#utility.yul\":2475:2478   */\n      0x80\n        /* \"#utility.yul\":2464:2473   */\n      dup3\n        /* \"#utility.yul\":2460:2479   */\n      add\n        /* \"#utility.yul\":2452:2479   */\n      swap1\n      pop\n        /* \"#utility.yul\":2489:2560   */\n      tag_162\n        /* \"#utility.yul\":2557:2558   */\n      0x00\n        /* \"#utility.yul\":2546:2555   */\n      dup4\n        /* \"#utility.yul\":2542:2559   */\n      add\n        /* \"#utility.yul\":2533:2539   */\n      dup8\n        /* \"#utility.yul\":2489:2560   */\n      tag_110\n      jump\t// in\n    tag_162:\n        /* \"#utility.yul\":2570:2642   */\n      tag_163\n        /* \"#utility.yul\":2638:2640   */\n      0x20\n        /* \"#utility.yul\":2627:2636   */\n      dup4\n        /* \"#utility.yul\":2623:2641   */\n      add\n        /* \"#utility.yul\":2614:2620   */\n      dup7\n        /* \"#utility.yul\":2570:2642   */\n      tag_111\n      jump\t// in\n    tag_163:\n        /* \"#utility.yul\":2652:2724   */\n      tag_164\n        /* \"#utility.yul\":2720:2722   */\n      0x40\n        /* \"#utility.yul\":2709:2718   */\n      dup4\n        /* \"#utility.yul\":2705:2723   */\n      add\n        /* \"#utility.yul\":2696:2702   */\n      dup6\n        /* \"#utility.yul\":2652:2724   */\n      tag_110\n      jump\t// in\n    tag_164:\n        /* \"#utility.yul\":2734:2806   */\n      tag_165\n        /* \"#utility.yul\":2802:2804   */\n      0x60\n        /* \"#utility.yul\":2791:2800   */\n      dup4\n        /* \"#utility.yul\":2787:2805   */\n      add\n        /* \"#utility.yul\":2778:2784   */\n      dup5\n        /* \"#utility.yul\":2734:2806   */\n      tag_111\n      jump\t// in\n    tag_165:\n        /* \"#utility.yul\":2260:2813   */\n      swap6\n      swap5\n      pop\n      pop\n      pop\n      pop\n      pop\n      jump\t// out\n        /* \"#utility.yul\":2819:3438   */\n    tag_24:\n        /* \"#utility.yul\":2896:2902   */\n      0x00\n        /* \"#utility.yul\":2904:2910   */\n      dup1\n        /* \"#utility.yul\":2912:2918   */\n      0x00\n        /* \"#utility.yul\":2961:2963   */\n      0x60\n        /* \"#utility.yul\":2949:2958   */\n      dup5\n        /* \"#utility.yul\":2940:2947   */\n      dup7\n        /* \"#utility.yul\":2936:2959   */\n      sub\n        /* \"#utility.yul\":2932:2964   */\n      slt\n        /* \"#utility.yul\":2929:3048   */\n      iszero\n      tag_167\n      jumpi\n        /* \"#utility.yul\":2967:3046   */\n      tag_168\n      tag_101\n      jump\t// in\n    tag_168:\n        /* \"#utility.yul\":2929:3048   */\n    tag_167:\n        /* \"#utility.yul\":3087:3088   */\n      0x00\n        /* \"#utility.yul\":3112:3165   */\n      tag_169\n        /* \"#utility.yul\":3157:3164   */\n      dup7\n        /* \"#utility.yul\":3148:3154   */\n      dup3\n        /* \"#utility.yul\":3137:3146   */\n      dup8\n        /* \"#utility.yul\":3133:3155   */\n      add\n        /* \"#utility.yul\":3112:3165   */\n      tag_106\n      jump\t// in\n    tag_169:\n        /* \"#utility.yul\":3102:3165   */\n      swap4\n      pop\n        /* \"#utility.yul\":3058:3175   */\n      pop\n        /* \"#utility.yul\":3214:3216   */\n      0x20\n        /* \"#utility.yul\":3240:3293   */\n      tag_170\n        /* \"#utility.yul\":3285:3292   */\n      dup7\n        /* \"#utility.yul\":3276:3282   */\n      dup3\n        /* \"#utility.yul\":3265:3274   */\n      dup8\n        /* \"#utility.yul\":3261:3283   */\n      add\n        /* \"#utility.yul\":3240:3293   */\n      tag_109\n      jump\t// in\n    tag_170:\n        /* \"#utility.yul\":3230:3293   */\n      swap3\n      pop\n        /* \"#utility.yul\":3185:3303   */\n      pop\n        /* \"#utility.yul\":3342:3344   */\n      0x40\n        /* \"#utility.yul\":3368:3421   */\n      tag_171\n        /* \"#utility.yul\":3413:3420   */\n      dup7\n        /* \"#utility.yul\":3404:3410   */\n      dup3\n        /* \"#utility.yul\":3393:3402   */\n      dup8\n        /* \"#utility.yul\":3389:3411   */\n      add\n        /* \"#utility.yul\":3368:3421   */\n      tag_109\n      jump\t// in\n    tag_171:\n        /* \"#utility.yul\":3358:3421   */\n      swap2\n      pop\n        /* \"#utility.yul\":3313:3431   */\n      pop\n        /* \"#utility.yul\":2819:3438   */\n      swap3\n      pop\n      swap3\n      pop\n      swap3\n      jump\t// out\n        /* \"#utility.yul\":3444:3548   */\n    tag_112:\n        /* \"#utility.yul\":3489:3496   */\n      0x00\n        /* \"#utility.yul\":3518:3542   */\n      tag_173\n        /* \"#utility.yul\":3536:3541   */\n      dup3\n        /* \"#utility.yul\":3518:3542   */\n      tag_103\n      jump\t// in\n    tag_173:\n        /* \"#utility.yul\":3507:3542   */\n      swap1\n      pop\n        /* \"#utility.yul\":3444:3548   */\n      swap2\n      swap1\n      pop\n      jump\t// out\n        /* \"#utility.yul\":3554:3696   */\n    tag_113:\n        /* \"#utility.yul\":3657:3689   */\n      tag_175\n        /* \"#utility.yul\":3683:3688   */\n      dup2\n        /* \"#utility.yul\":3657:3689   */\n      tag_112\n      jump\t// in\n    tag_175:\n        /* \"#utility.yul\":3652:3655   */\n      dup3\n        /* \"#utility.yul\":3645:3690   */\n      mstore\n        /* \"#utility.yul\":3554:3696   */\n      pop\n      pop\n      jump\t// out\n        /* \"#utility.yul\":3702:3956   */\n    tag_30:\n        /* \"#utility.yul\":3811:3815   */\n      0x00\n        /* \"#utility.yul\":3849:3851   */\n      0x20\n        /* \"#utility.yul\":3838:3847   */\n      dup3\n        /* \"#utility.yul\":3834:3852   */\n      add\n        /* \"#utility.yul\":3826:3852   */\n      swap1\n      pop\n        /* \"#utility.yul\":3862:3949   */\n      tag_177\n        /* \"#utility.yul\":3946:3947   */\n      0x00\n        /* \"#utility.yul\":3935:3944   */\n      dup4\n        /* \"#utility.yul\":3931:3948   */\n      add\n        /* \"#utility.yul\":3922:3928   */\n      dup5\n        /* \"#utility.yul\":3862:3949   */\n      tag_113\n      jump\t// in\n    tag_177:\n        /* \"#utility.yul\":3702:3956   */\n      swap3\n      swap2\n      pop\n      pop\n      jump\t// out\n        /* \"#utility.yul\":3962:4184   */\n    tag_42:\n        /* \"#utility.yul\":4055:4059   */\n      0x00\n        /* \"#utility.yul\":4093:4095   */\n      0x20\n        /* \"#utility.yul\":4082:4091   */\n      dup3\n        /* \"#utility.yul\":4078:4096   */\n      add\n        /* \"#utility.yul\":4070:4096   */\n      swap1\n      pop\n        /* \"#utility.yul\":4106:4177   */\n      tag_179\n        /* \"#utility.yul\":4174:4175   */\n      0x00\n        /* \"#utility.yul\":4163:4172   */\n      dup4\n        /* \"#utility.yul\":4159:4176   */\n      add\n        /* \"#utility.yul\":4150:4156   */\n      dup5\n        /* \"#utility.yul\":4106:4177   */\n      tag_111\n      jump\t// in\n    tag_179:\n        /* \"#utility.yul\":3962:4184   */\n      swap3\n      swap2\n      pop\n      pop\n      jump\t// out\n        /* \"#utility.yul\":4190:4280   */\n    tag_114:\n        /* \"#utility.yul\":4224:4231   */\n      0x00\n        /* \"#utility.yul\":4267:4272   */\n      dup2\n        /* \"#utility.yul\":4260:4273   */\n      iszero\n        /* \"#utility.yul\":4253:4274   */\n      iszero\n        /* \"#utility.yul\":4242:4274   */\n      swap1\n      pop\n        /* \"#utility.yul\":4190:4280   */\n      swap2\n      swap1\n      pop\n      jump\t// out\n        /* \"#utility.yul\":4286:4395   */\n    tag_115:\n        /* \"#utility.yul\":4367:4388   */\n      tag_182\n        /* \"#utility.yul\":4382:4387   */\n      dup2\n        /* \"#utility.yul\":4367:4388   */\n      tag_114\n      jump\t// in\n    tag_182:\n        /* \"#utility.yul\":4362:4365   */\n      dup3\n        /* \"#utility.yul\":4355:4389   */\n      mstore\n        /* \"#utility.yul\":4286:4395   */\n      pop\n      pop\n      jump\t// out\n        /* \"#utility.yul\":4401:4611   */\n    tag_48:\n        /* \"#utility.yul\":4488:4492   */\n      0x00\n        /* \"#utility.yul\":4526:4528   */\n      0x20\n        /* \"#utility.yul\":4515:4524   */\n      dup3\n        /* \"#utility.yul\":4511:4529   */\n      add\n        /* \"#utility.yul\":4503:4529   */\n      swap1\n      pop\n        /* \"#utility.yul\":4539:4604   */\n      tag_184\n        /* \"#utility.yul\":4601:4602   */\n      0x00\n        /* \"#utility.yul\":4590:4599   */\n      dup4\n        /* \"#utility.yul\":4586:4603   */\n      add\n        /* \"#utility.yul\":4577:4583   */\n      dup5\n        /* \"#utility.yul\":4539:4604   */\n      tag_115\n      jump\t// in\n    tag_184:\n        /* \"#utility.yul\":4401:4611   */\n      swap3\n      swap2\n      pop\n      pop\n      jump\t// out\n        /* \"#utility.yul\":4617:4786   */\n    tag_116:\n        /* \"#utility.yul\":4701:4712   */\n      0x00\n        /* \"#utility.yul\":4735:4741   */\n      dup3\n        /* \"#utility.yul\":4730:4733   */\n      dup3\n        /* \"#utility.yul\":4723:4742   */\n      mstore\n        /* \"#utility.yul\":4775:4779   */\n      0x20\n        /* \"#utility.yul\":4770:4773   */\n      dup3\n        /* \"#utility.yul\":4766:4780   */\n      add\n        /* \"#utility.yul\":4751:4780   */\n      swap1\n      pop\n        /* \"#utility.yul\":4617:4786   */\n      swap3\n      swap2\n      pop\n      pop\n      jump\t// out\n        /* \"#utility.yul\":4792:4952   */\n    tag_117:\n        /* \"#utility.yul\":4932:4944   */\n      0x4e6f74206c697374656400000000000000000000000000000000000000000000\n        /* \"#utility.yul\":4928:4929   */\n      0x00\n        /* \"#utility.yul\":4920:4926   */\n      dup3\n        /* \"#utility.yul\":4916:4930   */\n      add\n        /* \"#utility.yul\":4909:4945   */\n      mstore\n        /* \"#utility.yul\":4792:4952   */\n      pop\n      jump\t// out\n        /* \"#utility.yul\":4958:5324   */\n    tag_118:\n        /* \"#utility.yul\":5100:5103   */\n      0x00\n        /* \"#utility.yul\":5121:5188   */\n      tag_188\n        /* \"#utility.yul\":5185:5187   */\n      0x0a\n        /* \"#utility.yul\":5180:5183   */\n      dup4\n        /* \"#utility.yul\":5121:5188   */\n      tag_116\n      jump\t// in\n    tag_188:\n        /* \"#utility.yul\":5114:5188   */\n      swap2\n      pop\n        /* \"#utility.yul\":5197:5290   */\n      tag_189\n        /* \"#utility.yul\":5286:5289   */\n      dup3\n        /* \"#utility.yul\":5197:5290   */\n      tag_117\n      jump\t// in\n    tag_189:\n        /* \"#utility.yul\":5315:5317   */\n      0x20\n        /* \"#utility.yul\":5310:5313   */\n      dup3\n        /* \"#utility.yul\":5306:5318   */\n      add\n        /* \"#utility.yul\":5299:5318   */\n      swap1\n      pop\n        /* \"#utility.yul\":4958:5324   */\n      swap2\n      swap1\n      pop\n      jump\t// out\n        /* \"#utility.yul\":5330:5749   */\n    tag_55:\n        /* \"#utility.yul\":5496:5500   */\n      0x00\n        /* \"#utility.yul\":5534:5536   */\n      0x20\n        /* \"#utility.yul\":5523:5532   */\n      dup3\n        /* \"#utility.yul\":5519:5537   */\n      add\n        /* \"#utility.yul\":5511:5537   */\n      swap1\n      pop\n        /* \"#utility.yul\":5583:5592   */\n      dup2\n        /* \"#utility.yul\":5577:5581   */\n      dup2\n        /* \"#utility.yul\":5573:5593   */\n      sub\n        /* \"#utility.yul\":5569:5570   */\n      0x00\n        /* \"#utility.yul\":5558:5567   */\n      dup4\n        /* \"#utility.yul\":5554:5571   */\n      add\n        /* \"#utility.yul\":5547:5594   */\n      mstore\n        /* \"#utility.yul\":5611:5742   */\n      tag_191\n        /* \"#utility.yul\":5737:5741   */\n      dup2\n        /* \"#utility.yul\":5611:5742   */\n      tag_118\n      jump\t// in\n    tag_191:\n        /* \"#utility.yul\":5603:5742   */\n      swap1\n      pop\n        /* \"#utility.yul\":5330:5749   */\n      swap2\n      swap1\n      pop\n      jump\t// out\n        /* \"#utility.yul\":5755:5921   */\n    tag_119:\n        /* \"#utility.yul\":5895:5913   */\n      0x4e6f7420656e6f756768206d6f6e657900000000000000000000000000000000\n        /* \"#utility.yul\":5891:5892   */\n      0x00\n        /* \"#utility.yul\":5883:5889   */\n      dup3\n        /* \"#utility.yul\":5879:5893   */\n      add\n        /* \"#utility.yul\":5872:5914   */\n      mstore\n        /* \"#utility.yul\":5755:5921   */\n      pop\n      jump\t// out\n        /* \"#utility.yul\":5927:6293   */\n    tag_120:\n        /* \"#utility.yul\":6069:6072   */\n      0x00\n        /* \"#utility.yul\":6090:6157   */\n      tag_194\n        /* \"#utility.yul\":6154:6156   */\n      0x10\n        /* \"#utility.yul\":6149:6152   */\n      dup4\n        /* \"#utility.yul\":6090:6157   */\n      tag_116\n      jump\t// in\n    tag_194:\n        /* \"#utility.yul\":6083:6157   */\n      swap2\n      pop\n        /* \"#utility.yul\":6166:6259   */\n      tag_195\n        /* \"#utility.yul\":6255:6258   */\n      dup3\n        /* \"#utility.yul\":6166:6259   */\n      tag_119\n      jump\t// in\n    tag_195:\n        /* \"#utility.yul\":6284:6286   */\n      0x20\n        /* \"#utility.yul\":6279:6282   */\n      dup3\n        /* \"#utility.yul\":6275:6287   */\n      add\n        /* \"#utility.yul\":6268:6287   */\n      swap1\n      pop\n        /* \"#utility.yul\":5927:6293   */\n      swap2\n      swap1\n      pop\n      jump\t// out\n        /* \"#utility.yul\":6299:6718   */\n    tag_58:\n        /* \"#utility.yul\":6465:6469   */\n      0x00\n        /* \"#utility.yul\":6503:6505   */\n      0x20\n        /* \"#utility.yul\":6492:6501   */\n      dup3\n        /* \"#utility.yul\":6488:6506   */\n      add\n        /* \"#utility.yul\":6480:6506   */\n      swap1\n      pop\n        /* \"#utility.yul\":6552:6561   */\n      dup2\n        /* \"#utility.yul\":6546:6550   */\n      dup2\n        /* \"#utility.yul\":6542:6562   */\n      sub\n        /* \"#utility.yul\":6538:6539   */\n      0x00\n        /* \"#utility.yul\":6527:6536   */\n      dup4\n        /* \"#utility.yul\":6523:6540   */\n      add\n        /* \"#utility.yul\":6516:6563   */\n      mstore\n        /* \"#utility.yul\":6580:6711   */\n      tag_197\n        /* \"#utility.yul\":6706:6710   */\n      dup2\n        /* \"#utility.yul\":6580:6711   */\n      tag_120\n      jump\t// in\n    tag_197:\n        /* \"#utility.yul\":6572:6711   */\n      swap1\n      pop\n        /* \"#utility.yul\":6299:6718   */\n      swap2\n      swap1\n      pop\n      jump\t// out\n        /* \"#utility.yul\":6724:6904   */\n    tag_121:\n        /* \"#utility.yul\":6772:6849   */\n      0x4e487b7100000000000000000000000000000000000000000000000000000000\n        /* \"#utility.yul\":6769:6770   */\n      0x00\n        /* \"#utility.yul\":6762:6850   */\n      mstore\n        /* \"#utility.yul\":6869:6873   */\n      0x11\n        /* \"#utility.yul\":6866:6867   */\n      0x04\n        /* \"#utility.yul\":6859:6874   */\n      mstore\n        /* \"#utility.yul\":6893:6897   */\n      0x24\n        /* \"#utility.yul\":6890:6891   */\n      0x00\n        /* \"#utility.yul\":6883:6898   */\n      revert\n        /* \"#utility.yul\":6910:7101   */\n    tag_60:\n        /* \"#utility.yul\":6950:6953   */\n      0x00\n        /* \"#utility.yul\":6969:6989   */\n      tag_200\n        /* \"#utility.yul\":6987:6988   */\n      dup3\n        /* \"#utility.yul\":6969:6989   */\n      tag_107\n      jump\t// in\n    tag_200:\n        /* \"#utility.yul\":6964:6989   */\n      swap2\n      pop\n        /* \"#utility.yul\":7003:7023   */\n      tag_201\n        /* \"#utility.yul\":7021:7022   */\n      dup4\n        /* \"#utility.yul\":7003:7023   */\n      tag_107\n      jump\t// in\n    tag_201:\n        /* \"#utility.yul\":6998:7023   */\n      swap3\n      pop\n        /* \"#utility.yul\":7046:7047   */\n      dup3\n        /* \"#utility.yul\":7043:7044   */\n      dup3\n        /* \"#utility.yul\":7039:7048   */\n      add\n        /* \"#utility.yul\":7032:7048   */\n      swap1\n      pop\n        /* \"#utility.yul\":7067:7070   */\n      dup1\n        /* \"#utility.yul\":7064:7065   */\n      dup3\n        /* \"#utility.yul\":7061:7071   */\n      gt\n        /* \"#utility.yul\":7058:7094   */\n      iszero\n      tag_202\n      jumpi\n        /* \"#utility.yul\":7074:7092   */\n      tag_203\n      tag_121\n      jump\t// in\n    tag_203:\n        /* \"#utility.yul\":7058:7094   */\n    tag_202:\n        /* \"#utility.yul\":6910:7101   */\n      swap3\n      swap2\n      pop\n      pop\n      jump\t// out\n        /* \"#utility.yul\":7107:7549   */\n    tag_62:\n        /* \"#utility.yul\":7256:7260   */\n      0x00\n        /* \"#utility.yul\":7294:7296   */\n      0x60\n        /* \"#utility.yul\":7283:7292   */\n      dup3\n        /* \"#utility.yul\":7279:7297   */\n      add\n        /* \"#utility.yul\":7271:7297   */\n      swap1\n      pop\n        /* \"#utility.yul\":7307:7378   */\n      tag_205\n        /* \"#utility.yul\":7375:7376   */\n      0x00\n        /* \"#utility.yul\":7364:7373   */\n      dup4\n        /* \"#utility.yul\":7360:7377   */\n      add\n        /* \"#utility.yul\":7351:7357   */\n      dup7\n        /* \"#utility.yul\":7307:7378   */\n      tag_110\n      jump\t// in\n    tag_205:\n        /* \"#utility.yul\":7388:7460   */\n      tag_206\n        /* \"#utility.yul\":7456:7458   */\n      0x20\n        /* \"#utility.yul\":7445:7454   */\n      dup4\n        /* \"#utility.yul\":7441:7459   */\n      add\n        /* \"#utility.yul\":7432:7438   */\n      dup6\n        /* \"#utility.yul\":7388:7460   */\n      tag_110\n      jump\t// in\n    tag_206:\n        /* \"#utility.yul\":7470:7542   */\n      tag_207\n        /* \"#utility.yul\":7538:7540   */\n      0x40\n        /* \"#utility.yul\":7527:7536   */\n      dup4\n        /* \"#utility.yul\":7523:7541   */\n      add\n        /* \"#utility.yul\":7514:7520   */\n      dup5\n        /* \"#utility.yul\":7470:7542   */\n      tag_111\n      jump\t// in\n    tag_207:\n        /* \"#utility.yul\":7107:7549   */\n      swap5\n      swap4\n      pop\n      pop\n      pop\n      pop\n      jump\t// out\n        /* \"#utility.yul\":7555:7737   */\n    tag_122:\n        /* \"#utility.yul\":7695:7729   */\n      0x5072696365206e6565647320746f2062652067726561746572207468616e2030\n        /* \"#utility.yul\":7691:7692   */\n      0x00\n        /* \"#utility.yul\":7683:7689   */\n      dup3\n        /* \"#utility.yul\":7679:7693   */\n      add\n        /* \"#utility.yul\":7672:7730   */\n      mstore\n        /* \"#utility.yul\":7555:7737   */\n      pop\n      jump\t// out\n        /* \"#utility.yul\":7743:8109   */\n    tag_123:\n        /* \"#utility.yul\":7885:7888   */\n      0x00\n        /* \"#utility.yul\":7906:7973   */\n      tag_210\n        /* \"#utility.yul\":7970:7972   */\n      0x20\n        /* \"#utility.yul\":7965:7968   */\n      dup4\n        /* \"#utility.yul\":7906:7973   */\n      tag_116\n      jump\t// in\n    tag_210:\n        /* \"#utility.yul\":7899:7973   */\n      swap2\n      pop\n        /* \"#utility.yul\":7982:8075   */\n      tag_211\n        /* \"#utility.yul\":8071:8074   */\n      dup3\n        /* \"#utility.yul\":7982:8075   */\n      tag_122\n      jump\t// in\n    tag_211:\n        /* \"#utility.yul\":8100:8102   */\n      0x20\n        /* \"#utility.yul\":8095:8098   */\n      dup3\n        /* \"#utility.yul\":8091:8103   */\n      add\n        /* \"#utility.yul\":8084:8103   */\n      swap1\n      pop\n        /* \"#utility.yul\":7743:8109   */\n      swap2\n      swap1\n      pop\n      jump\t// out\n        /* \"#utility.yul\":8115:8534   */\n    tag_73:\n        /* \"#utility.yul\":8281:8285   */\n      0x00\n        /* \"#utility.yul\":8319:8321   */\n      0x20\n        /* \"#utility.yul\":8308:8317   */\n      dup3\n        /* \"#utility.yul\":8304:8322   */\n      add\n        /* \"#utility.yul\":8296:8322   */\n      swap1\n      pop\n        /* \"#utility.yul\":8368:8377   */\n      dup2\n        /* \"#utility.yul\":8362:8366   */\n      dup2\n        /* \"#utility.yul\":8358:8378   */\n      sub\n        /* \"#utility.yul\":8354:8355   */\n      0x00\n        /* \"#utility.yul\":8343:8352   */\n      dup4\n        /* \"#utility.yul\":8339:8356   */\n      add\n        /* \"#utility.yul\":8332:8379   */\n      mstore\n        /* \"#utility.yul\":8396:8527   */\n      tag_213\n        /* \"#utility.yul\":8522:8526   */\n      dup2\n        /* \"#utility.yul\":8396:8527   */\n      tag_123\n      jump\t// in\n    tag_213:\n        /* \"#utility.yul\":8388:8527   */\n      swap1\n      pop\n        /* \"#utility.yul\":8115:8534   */\n      swap2\n      swap1\n      pop\n      jump\t// out\n        /* \"#utility.yul\":8540:8761   */\n    tag_124:\n        /* \"#utility.yul\":8680:8714   */\n      0x506c6561736520696e636c75646520746865207472616e73616374696f6e2066\n        /* \"#utility.yul\":8676:8677   */\n      0x00\n        /* \"#utility.yul\":8668:8674   */\n      dup3\n        /* \"#utility.yul\":8664:8678   */\n      add\n        /* \"#utility.yul\":8657:8715   */\n      mstore\n        /* \"#utility.yul\":8749:8753   */\n      0x6565000000000000000000000000000000000000000000000000000000000000\n        /* \"#utility.yul\":8744:8746   */\n      0x20\n        /* \"#utility.yul\":8736:8742   */\n      dup3\n        /* \"#utility.yul\":8732:8747   */\n      add\n        /* \"#utility.yul\":8725:8754   */\n      mstore\n        /* \"#utility.yul\":8540:8761   */\n      pop\n      jump\t// out\n        /* \"#utility.yul\":8767:9133   */\n    tag_125:\n        /* \"#utility.yul\":8909:8912   */\n      0x00\n        /* \"#utility.yul\":8930:8997   */\n      tag_216\n        /* \"#utility.yul\":8994:8996   */\n      0x22\n        /* \"#utility.yul\":8989:8992   */\n      dup4\n        /* \"#utility.yul\":8930:8997   */\n      tag_116\n      jump\t// in\n    tag_216:\n        /* \"#utility.yul\":8923:8997   */\n      swap2\n      pop\n        /* \"#utility.yul\":9006:9099   */\n      tag_217\n        /* \"#utility.yul\":9095:9098   */\n      dup3\n        /* \"#utility.yul\":9006:9099   */\n      tag_124\n      jump\t// in\n    tag_217:\n        /* \"#utility.yul\":9124:9126   */\n      0x40\n        /* \"#utility.yul\":9119:9122   */\n      dup3\n        /* \"#utility.yul\":9115:9127   */\n      add\n        /* \"#utility.yul\":9108:9127   */\n      swap1\n      pop\n        /* \"#utility.yul\":8767:9133   */\n      swap2\n      swap1\n      pop\n      jump\t// out\n        /* \"#utility.yul\":9139:9558   */\n    tag_76:\n        /* \"#utility.yul\":9305:9309   */\n      0x00\n        /* \"#utility.yul\":9343:9345   */\n      0x20\n        /* \"#utility.yul\":9332:9341   */\n      dup3\n        /* \"#utility.yul\":9328:9346   */\n      add\n        /* \"#utility.yul\":9320:9346   */\n      swap1\n      pop\n        /* \"#utility.yul\":9392:9401   */\n      dup2\n        /* \"#utility.yul\":9386:9390   */\n      dup2\n        /* \"#utility.yul\":9382:9402   */\n      sub\n        /* \"#utility.yul\":9378:9379   */\n      0x00\n        /* \"#utility.yul\":9367:9376   */\n      dup4\n        /* \"#utility.yul\":9363:9380   */\n      add\n        /* \"#utility.yul\":9356:9403   */\n      mstore\n        /* \"#utility.yul\":9420:9551   */\n      tag_219\n        /* \"#utility.yul\":9546:9550   */\n      dup2\n        /* \"#utility.yul\":9420:9551   */\n      tag_125\n      jump\t// in\n    tag_219:\n        /* \"#utility.yul\":9412:9551   */\n      swap1\n      pop\n        /* \"#utility.yul\":9139:9558   */\n      swap2\n      swap1\n      pop\n      jump\t// out\n        /* \"#utility.yul\":9564:9726   */\n    tag_126:\n        /* \"#utility.yul\":9704:9718   */\n      0x4e6f7420796f7572206e66740000000000000000000000000000000000000000\n        /* \"#utility.yul\":9700:9701   */\n      0x00\n        /* \"#utility.yul\":9692:9698   */\n      dup3\n        /* \"#utility.yul\":9688:9702   */\n      add\n        /* \"#utility.yul\":9681:9719   */\n      mstore\n        /* \"#utility.yul\":9564:9726   */\n      pop\n      jump\t// out\n        /* \"#utility.yul\":9732:10098   */\n    tag_127:\n        /* \"#utility.yul\":9874:9877   */\n      0x00\n        /* \"#utility.yul\":9895:9962   */\n      tag_222\n        /* \"#utility.yul\":9959:9961   */\n      0x0c\n        /* \"#utility.yul\":9954:9957   */\n      dup4\n        /* \"#utility.yul\":9895:9962   */\n      tag_116\n      jump\t// in\n    tag_222:\n        /* \"#utility.yul\":9888:9962   */\n      swap2\n      pop\n        /* \"#utility.yul\":9971:10064   */\n      tag_223\n        /* \"#utility.yul\":10060:10063   */\n      dup3\n        /* \"#utility.yul\":9971:10064   */\n      tag_126\n      jump\t// in\n    tag_223:\n        /* \"#utility.yul\":10089:10091   */\n      0x20\n        /* \"#utility.yul\":10084:10087   */\n      dup3\n        /* \"#utility.yul\":10080:10092   */\n      add\n        /* \"#utility.yul\":10073:10092   */\n      swap1\n      pop\n        /* \"#utility.yul\":9732:10098   */\n      swap2\n      swap1\n      pop\n      jump\t// out\n        /* \"#utility.yul\":10104:10523   */\n    tag_90:\n        /* \"#utility.yul\":10270:10274   */\n      0x00\n        /* \"#utility.yul\":10308:10310   */\n      0x20\n        /* \"#utility.yul\":10297:10306   */\n      dup3\n        /* \"#utility.yul\":10293:10311   */\n      add\n        /* \"#utility.yul\":10285:10311   */\n      swap1\n      pop\n        /* \"#utility.yul\":10357:10366   */\n      dup2\n        /* \"#utility.yul\":10351:10355   */\n      dup2\n        /* \"#utility.yul\":10347:10367   */\n      sub\n        /* \"#utility.yul\":10343:10344   */\n      0x00\n        /* \"#utility.yul\":10332:10341   */\n      dup4\n        /* \"#utility.yul\":10328:10345   */\n      add\n        /* \"#utility.yul\":10321:10368   */\n      mstore\n        /* \"#utility.yul\":10385:10516   */\n      tag_225\n        /* \"#utility.yul\":10511:10515   */\n      dup2\n        /* \"#utility.yul\":10385:10516   */\n      tag_127\n      jump\t// in\n    tag_225:\n        /* \"#utility.yul\":10377:10516   */\n      swap1\n      pop\n        /* \"#utility.yul\":10104:10523   */\n      swap2\n      swap1\n      pop\n      jump\t// out\n        /* \"#utility.yul\":10529:10710   */\n    tag_128:\n        /* \"#utility.yul\":10669:10702   */\n      0x5265656e7472616e637947756172643a207265656e7472616e742063616c6c00\n        /* \"#utility.yul\":10665:10666   */\n      0x00\n        /* \"#utility.yul\":10657:10663   */\n      dup3\n        /* \"#utility.yul\":10653:10667   */\n      add\n        /* \"#utility.yul\":10646:10703   */\n      mstore\n        /* \"#utility.yul\":10529:10710   */\n      pop\n      jump\t// out\n        /* \"#utility.yul\":10716:11082   */\n    tag_129:\n        /* \"#utility.yul\":10858:10861   */\n      0x00\n        /* \"#utility.yul\":10879:10946   */\n      tag_228\n        /* \"#utility.yul\":10943:10945   */\n      0x1f\n        /* \"#utility.yul\":10938:10941   */\n      dup4\n        /* \"#utility.yul\":10879:10946   */\n      tag_116\n      jump\t// in\n    tag_228:\n        /* \"#utility.yul\":10872:10946   */\n      swap2\n      pop\n        /* \"#utility.yul\":10955:11048   */\n      tag_229\n        /* \"#utility.yul\":11044:11047   */\n      dup3\n        /* \"#utility.yul\":10955:11048   */\n      tag_128\n      jump\t// in\n    tag_229:\n        /* \"#utility.yul\":11073:11075   */\n      0x20\n        /* \"#utility.yul\":11068:11071   */\n      dup3\n        /* \"#utility.yul\":11064:11076   */\n      add\n        /* \"#utility.yul\":11057:11076   */\n      swap1\n      pop\n        /* \"#utility.yul\":10716:11082   */\n      swap2\n      swap1\n      pop\n      jump\t// out\n        /* \"#utility.yul\":11088:11507   */\n    tag_98:\n        /* \"#utility.yul\":11254:11258   */\n      0x00\n        /* \"#utility.yul\":11292:11294   */\n      0x20\n        /* \"#utility.yul\":11281:11290   */\n      dup3\n        /* \"#utility.yul\":11277:11295   */\n      add\n        /* \"#utility.yul\":11269:11295   */\n      swap1\n      pop\n        /* \"#utility.yul\":11341:11350   */\n      dup2\n        /* \"#utility.yul\":11335:11339   */\n      dup2\n        /* \"#utility.yul\":11331:11351   */\n      sub\n        /* \"#utility.yul\":11327:11328   */\n      0x00\n        /* \"#utility.yul\":11316:11325   */\n      dup4\n        /* \"#utility.yul\":11312:11329   */\n      add\n        /* \"#utility.yul\":11305:11352   */\n      mstore\n        /* \"#utility.yul\":11369:11500   */\n      tag_231\n        /* \"#utility.yul\":11495:11499   */\n      dup2\n        /* \"#utility.yul\":11369:11500   */\n      tag_129\n      jump\t// in\n    tag_231:\n        /* \"#utility.yul\":11361:11500   */\n      swap1\n      pop\n        /* \"#utility.yul\":11088:11507   */\n      swap2\n      swap1\n      pop\n      jump\t// out\n\n    auxdata: 0xa2646970667358221220f6d821e83d7f514ece4997a7f92754dd7334c16b531192398f280adefec843ea64736f6c63430008120033\n}\n",
				"bytecode": {
					"linkReferences": {},
					"object": "608060405234801561001057600080fd5b506001600081905550610fa6806100286000396000f3fe60806040526004361061007b5760003560e01c80639038e6931161004e5780639038e6931461012357806399bd17e41461013a5780639ed3edf014610163578063fcce48831461018e5761007b565b80634ddf4f8f146100805780637c5bb03d1461009c57806389bfd38f146100dc5780638da5cb5b146100f8575b600080fd5b61009a60048036038101906100959190610a67565b6101cb565b005b3480156100a857600080fd5b506100c360048036038101906100be9190610aa7565b610400565b6040516100d39493929190610af2565b60405180910390f35b6100f660048036038101906100f19190610b37565b610470565b005b34801561010457600080fd5b5061010d6106ac565b60405161011a9190610bab565b60405180910390f35b34801561012f57600080fd5b506101386106d2565b005b34801561014657600080fd5b50610161600480360381019061015c9190610a67565b6107a5565b005b34801561016f57600080fd5b5061017861094f565b6040516101859190610bc6565b60405180910390f35b34801561019a57600080fd5b506101b560048036038101906101b09190610aa7565b610955565b6040516101c29190610bfc565b60405180910390f35b6101d3610975565b600115156003600083815260200190815260200160002060009054906101000a900460ff1615151461023a576040517f08c379a000000000000000000000000000000000000000000000000000000000815260040161023190610c74565b60405180910390fd5b600060026000838152602001908152602001600020905080600301543414610297576040517f08c379a000000000000000000000000000000000000000000000000000000000815260040161028e90610ce0565b60405180910390fd5b34600460008360020160009054906101000a900473ffffffffffffffffffffffffffffffffffffffff1673ffffffffffffffffffffffffffffffffffffffff1673ffffffffffffffffffffffffffffffffffffffff168152602001908152602001600020600082825461030a9190610d2f565b925050819055508273ffffffffffffffffffffffffffffffffffffffff166323b872dd303384600101546040518463ffffffff1660e01b815260040161035293929190610d63565b600060405180830381600087803b15801561036c57600080fd5b505af1158015610380573d6000803e3d6000fd5b50505050338160020160006101000a81548173ffffffffffffffffffffffffffffffffffffffff021916908373ffffffffffffffffffffffffffffffffffffffff16021790555060006003600084815260200190815260200160002060006101000a81548160ff021916908315150217905550506103fc6109c4565b5050565b60026020528060005260406000206000915090508060000160009054906101000a900473ffffffffffffffffffffffffffffffffffffffff16908060010154908060020160009054906101000a900473ffffffffffffffffffffffffffffffffffffffff16908060030154905084565b610478610975565b600081116104bb576040517f08c379a00000000000000000000000000000000000000000000000000000000081526004016104b290610de6565b60405180910390fd5b60055434146104ff576040517f08c379a00000000000000000000000000000000000000000000000000000000081526004016104f690610e78565b60405180910390fd5b8273ffffffffffffffffffffffffffffffffffffffff166323b872dd3330856040518463ffffffff1660e01b815260040161053c93929190610d63565b600060405180830381600087803b15801561055657600080fd5b505af115801561056a573d6000803e3d6000fd5b5050505060405180608001604052808473ffffffffffffffffffffffffffffffffffffffff1681526020018381526020013373ffffffffffffffffffffffffffffffffffffffff168152602001828152506002600084815260200190815260200160002060008201518160000160006101000a81548173ffffffffffffffffffffffffffffffffffffffff021916908373ffffffffffffffffffffffffffffffffffffffff1602179055506020820151816001015560408201518160020160006101000a81548173ffffffffffffffffffffffffffffffffffffffff021916908373ffffffffffffffffffffffffffffffffffffffff1602179055506060820151816003015590505060016003600084815260200190815260200160002060006101000a81548160ff0219169083151502179055506106a76109c4565b505050565b600160009054906101000a900473ffffffffffffffffffffffffffffffffffffffff1681565b6000600460003373ffffffffffffffffffffffffffffffffffffffff1673ffffffffffffffffffffffffffffffffffffffff1681526020019081526020016000205490506000600460003373ffffffffffffffffffffffffffffffffffffffff1673ffffffffffffffffffffffffffffffffffffffff168152602001908152602001600020819055503373ffffffffffffffffffffffffffffffffffffffff166108fc829081150290604051600060405180830381858888f193505050501580156107a1573d6000803e3d6000fd5b5050565b600115156003600083815260200190815260200160002060009054906101000a900460ff1615151461080c576040517f08c379a000000000000000000000000000000000000000000000000000000000815260040161080390610c74565b60405180910390fd5b3373ffffffffffffffffffffffffffffffffffffffff166002600083815260200190815260200160002060020160009054906101000a900473ffffffffffffffffffffffffffffffffffffffff1673ffffffffffffffffffffffffffffffffffffffff16146108b0576040517f08c379a00000000000000000000000000000000000000000000000000000000081526004016108a790610ee4565b60405180910390fd5b8173ffffffffffffffffffffffffffffffffffffffff166323b872dd3033846040518463ffffffff1660e01b81526004016108ed93929190610d63565b600060405180830381600087803b15801561090757600080fd5b505af115801561091b573d6000803e3d6000fd5b5050505060006003600083815260200190815260200160002060006101000a81548160ff0219169083151502179055505050565b60055481565b60036020528060005260406000206000915054906101000a900460ff1681565b6002600054036109ba576040517f08c379a00000000000000000000000000000000000000000000000000000000081526004016109b190610f50565b60405180910390fd5b6002600081905550565b6001600081905550565b600080fd5b600073ffffffffffffffffffffffffffffffffffffffff82169050919050565b60006109fe826109d3565b9050919050565b610a0e816109f3565b8114610a1957600080fd5b50565b600081359050610a2b81610a05565b92915050565b6000819050919050565b610a4481610a31565b8114610a4f57600080fd5b50565b600081359050610a6181610a3b565b92915050565b60008060408385031215610a7e57610a7d6109ce565b5b6000610a8c85828601610a1c565b9250506020610a9d85828601610a52565b9150509250929050565b600060208284031215610abd57610abc6109ce565b5b6000610acb84828501610a52565b91505092915050565b610add816109f3565b82525050565b610aec81610a31565b82525050565b6000608082019050610b076000830187610ad4565b610b146020830186610ae3565b610b216040830185610ad4565b610b2e6060830184610ae3565b95945050505050565b600080600060608486031215610b5057610b4f6109ce565b5b6000610b5e86828701610a1c565b9350506020610b6f86828701610a52565b9250506040610b8086828701610a52565b9150509250925092565b6000610b95826109d3565b9050919050565b610ba581610b8a565b82525050565b6000602082019050610bc06000830184610b9c565b92915050565b6000602082019050610bdb6000830184610ae3565b92915050565b60008115159050919050565b610bf681610be1565b82525050565b6000602082019050610c116000830184610bed565b92915050565b600082825260208201905092915050565b7f4e6f74206c697374656400000000000000000000000000000000000000000000600082015250565b6000610c5e600a83610c17565b9150610c6982610c28565b602082019050919050565b60006020820190508181036000830152610c8d81610c51565b9050919050565b7f4e6f7420656e6f756768206d6f6e657900000000000000000000000000000000600082015250565b6000610cca601083610c17565b9150610cd582610c94565b602082019050919050565b60006020820190508181036000830152610cf981610cbd565b9050919050565b7f4e487b7100000000000000000000000000000000000000000000000000000000600052601160045260246000fd5b6000610d3a82610a31565b9150610d4583610a31565b9250828201905080821115610d5d57610d5c610d00565b5b92915050565b6000606082019050610d786000830186610ad4565b610d856020830185610ad4565b610d926040830184610ae3565b949350505050565b7f5072696365206e6565647320746f2062652067726561746572207468616e2030600082015250565b6000610dd0602083610c17565b9150610ddb82610d9a565b602082019050919050565b60006020820190508181036000830152610dff81610dc3565b9050919050565b7f506c6561736520696e636c75646520746865207472616e73616374696f6e206660008201527f6565000000000000000000000000000000000000000000000000000000000000602082015250565b6000610e62602283610c17565b9150610e6d82610e06565b604082019050919050565b60006020820190508181036000830152610e9181610e55565b9050919050565b7f4e6f7420796f7572206e66740000000000000000000000000000000000000000600082015250565b6000610ece600c83610c17565b9150610ed982610e98565b602082019050919050565b60006020820190508181036000830152610efd81610ec1565b9050919050565b7f5265656e7472616e637947756172643a207265656e7472616e742063616c6c00600082015250565b6000610f3a601f83610c17565b9150610f4582610f04565b602082019050919050565b60006020820190508181036000830152610f6981610f2d565b905091905056fea2646970667358221220f6d821e83d7f514ece4997a7f92754dd7334c16b531192398f280adefec843ea64736f6c63430008120033",
					"opcodes": "PUSH1 0x80 PUSH1 0x40 MSTORE CALLVALUE DUP1 ISZERO PUSH2 0x10 JUMPI PUSH1 0x0 DUP1 REVERT JUMPDEST POP PUSH1 0x1 PUSH1 0x0 DUP2 SWAP1 SSTORE POP PUSH2 0xFA6 DUP1 PUSH2 0x28 PUSH1 0x0 CODECOPY PUSH1 0x0 RETURN INVALID PUSH1 0x80 PUSH1 0x40 MSTORE PUSH1 0x4 CALLDATASIZE LT PUSH2 0x7B JUMPI PUSH1 0x0 CALLDATALOAD PUSH1 0xE0 SHR DUP1 PUSH4 0x9038E693 GT PUSH2 0x4E JUMPI DUP1 PUSH4 0x9038E693 EQ PUSH2 0x123 JUMPI DUP1 PUSH4 0x99BD17E4 EQ PUSH2 0x13A JUMPI DUP1 PUSH4 0x9ED3EDF0 EQ PUSH2 0x163 JUMPI DUP1 PUSH4 0xFCCE4883 EQ PUSH2 0x18E JUMPI PUSH2 0x7B JUMP JUMPDEST DUP1 PUSH4 0x4DDF4F8F EQ PUSH2 0x80 JUMPI DUP1 PUSH4 0x7C5BB03D EQ PUSH2 0x9C JUMPI DUP1 PUSH4 0x89BFD38F EQ PUSH2 0xDC JUMPI DUP1 PUSH4 0x8DA5CB5B EQ PUSH2 0xF8 JUMPI JUMPDEST PUSH1 0x0 DUP1 REVERT JUMPDEST PUSH2 0x9A PUSH1 0x4 DUP1 CALLDATASIZE SUB DUP2 ADD SWAP1 PUSH2 0x95 SWAP2 SWAP1 PUSH2 0xA67 JUMP JUMPDEST PUSH2 0x1CB JUMP JUMPDEST STOP JUMPDEST CALLVALUE DUP1 ISZERO PUSH2 0xA8 JUMPI PUSH1 0x0 DUP1 REVERT JUMPDEST POP PUSH2 0xC3 PUSH1 0x4 DUP1 CALLDATASIZE SUB DUP2 ADD SWAP1 PUSH2 0xBE SWAP2 SWAP1 PUSH2 0xAA7 JUMP JUMPDEST PUSH2 0x400 JUMP JUMPDEST PUSH1 0x40 MLOAD PUSH2 0xD3 SWAP5 SWAP4 SWAP3 SWAP2 SWAP1 PUSH2 0xAF2 JUMP JUMPDEST PUSH1 0x40 MLOAD DUP1 SWAP2 SUB SWAP1 RETURN JUMPDEST PUSH2 0xF6 PUSH1 0x4 DUP1 CALLDATASIZE SUB DUP2 ADD SWAP1 PUSH2 0xF1 SWAP2 SWAP1 PUSH2 0xB37 JUMP JUMPDEST PUSH2 0x470 JUMP JUMPDEST STOP JUMPDEST CALLVALUE DUP1 ISZERO PUSH2 0x104 JUMPI PUSH1 0x0 DUP1 REVERT JUMPDEST POP PUSH2 0x10D PUSH2 0x6AC JUMP JUMPDEST PUSH1 0x40 MLOAD PUSH2 0x11A SWAP2 SWAP1 PUSH2 0xBAB JUMP JUMPDEST PUSH1 0x40 MLOAD DUP1 SWAP2 SUB SWAP1 RETURN JUMPDEST CALLVALUE DUP1 ISZERO PUSH2 0x12F JUMPI PUSH1 0x0 DUP1 REVERT JUMPDEST POP PUSH2 0x138 PUSH2 0x6D2 JUMP JUMPDEST STOP JUMPDEST CALLVALUE DUP1 ISZERO PUSH2 0x146 JUMPI PUSH1 0x0 DUP1 REVERT JUMPDEST POP PUSH2 0x161 PUSH1 0x4 DUP1 CALLDATASIZE SUB DUP2 ADD SWAP1 PUSH2 0x15C SWAP2 SWAP1 PUSH2 0xA67 JUMP JUMPDEST PUSH2 0x7A5 JUMP JUMPDEST STOP JUMPDEST CALLVALUE DUP1 ISZERO PUSH2 0x16F JUMPI PUSH1 0x0 DUP1 REVERT JUMPDEST POP PUSH2 0x178 PUSH2 0x94F JUMP JUMPDEST PUSH1 0x40 MLOAD PUSH2 0x185 SWAP2 SWAP1 PUSH2 0xBC6 JUMP JUMPDEST PUSH1 0x40 MLOAD DUP1 SWAP2 SUB SWAP1 RETURN JUMPDEST CALLVALUE DUP1 ISZERO PUSH2 0x19A JUMPI PUSH1 0x0 DUP1 REVERT JUMPDEST POP PUSH2 0x1B5 PUSH1 0x4 DUP1 CALLDATASIZE SUB DUP2 ADD SWAP1 PUSH2 0x1B0 SWAP2 SWAP1 PUSH2 0xAA7 JUMP JUMPDEST PUSH2 0x955 JUMP JUMPDEST PUSH1 0x40 MLOAD PUSH2 0x1C2 SWAP2 SWAP1 PUSH2 0xBFC JUMP JUMPDEST PUSH1 0x40 MLOAD DUP1 SWAP2 SUB SWAP1 RETURN JUMPDEST PUSH2 0x1D3 PUSH2 0x975 JUMP JUMPDEST PUSH1 0x1 ISZERO ISZERO PUSH1 0x3 PUSH1 0x0 DUP4 DUP2 MSTORE PUSH1 0x20 ADD SWAP1 DUP2 MSTORE PUSH1 0x20 ADD PUSH1 0x0 KECCAK256 PUSH1 0x0 SWAP1 SLOAD SWAP1 PUSH2 0x100 EXP SWAP1 DIV PUSH1 0xFF AND ISZERO ISZERO EQ PUSH2 0x23A JUMPI PUSH1 0x40 MLOAD PUSH32 0x8C379A000000000000000000000000000000000000000000000000000000000 DUP2 MSTORE PUSH1 0x4 ADD PUSH2 0x231 SWAP1 PUSH2 0xC74 JUMP JUMPDEST PUSH1 0x40 MLOAD DUP1 SWAP2 SUB SWAP1 REVERT JUMPDEST PUSH1 0x0 PUSH1 0x2 PUSH1 0x0 DUP4 DUP2 MSTORE PUSH1 0x20 ADD SWAP1 DUP2 MSTORE PUSH1 0x20 ADD PUSH1 0x0 KECCAK256 SWAP1 POP DUP1 PUSH1 0x3 ADD SLOAD CALLVALUE EQ PUSH2 0x297 JUMPI PUSH1 0x40 MLOAD PUSH32 0x8C379A000000000000000000000000000000000000000000000000000000000 DUP2 MSTORE PUSH1 0x4 ADD PUSH2 0x28E SWAP1 PUSH2 0xCE0 JUMP JUMPDEST PUSH1 0x40 MLOAD DUP1 SWAP2 SUB SWAP1 REVERT JUMPDEST CALLVALUE PUSH1 0x4 PUSH1 0x0 DUP4 PUSH1 0x2 ADD PUSH1 0x0 SWAP1 SLOAD SWAP1 PUSH2 0x100 EXP SWAP1 DIV PUSH20 0xFFFFFFFFFFFFFFFFFFFFFFFFFFFFFFFFFFFFFFFF AND PUSH20 0xFFFFFFFFFFFFFFFFFFFFFFFFFFFFFFFFFFFFFFFF AND PUSH20 0xFFFFFFFFFFFFFFFFFFFFFFFFFFFFFFFFFFFFFFFF AND DUP2 MSTORE PUSH1 0x20 ADD SWAP1 DUP2 MSTORE PUSH1 0x20 ADD PUSH1 0x0 KECCAK256 PUSH1 0x0 DUP3 DUP3 SLOAD PUSH2 0x30A SWAP2 SWAP1 PUSH2 0xD2F JUMP JUMPDEST SWAP3 POP POP DUP2 SWAP1 SSTORE POP DUP3 PUSH20 0xFFFFFFFFFFFFFFFFFFFFFFFFFFFFFFFFFFFFFFFF AND PUSH4 0x23B872DD ADDRESS CALLER DUP5 PUSH1 0x1 ADD SLOAD PUSH1 0x40 MLOAD DUP5 PUSH4 0xFFFFFFFF AND PUSH1 0xE0 SHL DUP2 MSTORE PUSH1 0x4 ADD PUSH2 0x352 SWAP4 SWAP3 SWAP2 SWAP1 PUSH2 0xD63 JUMP JUMPDEST PUSH1 0x0 PUSH1 0x40 MLOAD DUP1 DUP4 SUB DUP2 PUSH1 0x0 DUP8 DUP1 EXTCODESIZE ISZERO DUP1 ISZERO PUSH2 0x36C JUMPI PUSH1 0x0 DUP1 REVERT JUMPDEST POP GAS CALL ISZERO DUP1 ISZERO PUSH2 0x380 JUMPI RETURNDATASIZE PUSH1 0x0 DUP1 RETURNDATACOPY RETURNDATASIZE PUSH1 0x0 REVERT JUMPDEST POP POP POP POP CALLER DUP2 PUSH1 0x2 ADD PUSH1 0x0 PUSH2 0x100 EXP DUP2 SLOAD DUP2 PUSH20 0xFFFFFFFFFFFFFFFFFFFFFFFFFFFFFFFFFFFFFFFF MUL NOT AND SWAP1 DUP4 PUSH20 0xFFFFFFFFFFFFFFFFFFFFFFFFFFFFFFFFFFFFFFFF AND MUL OR SWAP1 SSTORE POP PUSH1 0x0 PUSH1 0x3 PUSH1 0x0 DUP5 DUP2 MSTORE PUSH1 0x20 ADD SWAP1 DUP2 MSTORE PUSH1 0x20 ADD PUSH1 0x0 KECCAK256 PUSH1 0x0 PUSH2 0x100 EXP DUP2 SLOAD DUP2 PUSH1 0xFF MUL NOT AND SWAP1 DUP4 ISZERO ISZERO MUL OR SWAP1 SSTORE POP POP PUSH2 0x3FC PUSH2 0x9C4 JUMP JUMPDEST POP POP JUMP JUMPDEST PUSH1 0x2 PUSH1 0x20 MSTORE DUP1 PUSH1 0x0 MSTORE PUSH1 0x40 PUSH1 0x0 KECCAK256 PUSH1 0x0 SWAP2 POP SWAP1 POP DUP1 PUSH1 0x0 ADD PUSH1 0x0 SWAP1 SLOAD SWAP1 PUSH2 0x100 EXP SWAP1 DIV PUSH20 0xFFFFFFFFFFFFFFFFFFFFFFFFFFFFFFFFFFFFFFFF AND SWAP1 DUP1 PUSH1 0x1 ADD SLOAD SWAP1 DUP1 PUSH1 0x2 ADD PUSH1 0x0 SWAP1 SLOAD SWAP1 PUSH2 0x100 EXP SWAP1 DIV PUSH20 0xFFFFFFFFFFFFFFFFFFFFFFFFFFFFFFFFFFFFFFFF AND SWAP1 DUP1 PUSH1 0x3 ADD SLOAD SWAP1 POP DUP5 JUMP JUMPDEST PUSH2 0x478 PUSH2 0x975 JUMP JUMPDEST PUSH1 0x0 DUP2 GT PUSH2 0x4BB JUMPI PUSH1 0x40 MLOAD PUSH32 0x8C379A000000000000000000000000000000000000000000000000000000000 DUP2 MSTORE PUSH1 0x4 ADD PUSH2 0x4B2 SWAP1 PUSH2 0xDE6 JUMP JUMPDEST PUSH1 0x40 MLOAD DUP1 SWAP2 SUB SWAP1 REVERT JUMPDEST PUSH1 0x5 SLOAD CALLVALUE EQ PUSH2 0x4FF JUMPI PUSH1 0x40 MLOAD PUSH32 0x8C379A000000000000000000000000000000000000000000000000000000000 DUP2 MSTORE PUSH1 0x4 ADD PUSH2 0x4F6 SWAP1 PUSH2 0xE78 JUMP JUMPDEST PUSH1 0x40 MLOAD DUP1 SWAP2 SUB SWAP1 REVERT JUMPDEST DUP3 PUSH20 0xFFFFFFFFFFFFFFFFFFFFFFFFFFFFFFFFFFFFFFFF AND PUSH4 0x23B872DD CALLER ADDRESS DUP6 PUSH1 0x40 MLOAD DUP5 PUSH4 0xFFFFFFFF AND PUSH1 0xE0 SHL DUP2 MSTORE PUSH1 0x4 ADD PUSH2 0x53C SWAP4 SWAP3 SWAP2 SWAP1 PUSH2 0xD63 JUMP JUMPDEST PUSH1 0x0 PUSH1 0x40 MLOAD DUP1 DUP4 SUB DUP2 PUSH1 0x0 DUP8 DUP1 EXTCODESIZE ISZERO DUP1 ISZERO PUSH2 0x556 JUMPI PUSH1 0x0 DUP1 REVERT JUMPDEST POP GAS CALL ISZERO DUP1 ISZERO PUSH2 0x56A JUMPI RETURNDATASIZE PUSH1 0x0 DUP1 RETURNDATACOPY RETURNDATASIZE PUSH1 0x0 REVERT JUMPDEST POP POP POP POP PUSH1 0x40 MLOAD DUP1 PUSH1 0x80 ADD PUSH1 0x40 MSTORE DUP1 DUP5 PUSH20 0xFFFFFFFFFFFFFFFFFFFFFFFFFFFFFFFFFFFFFFFF AND DUP2 MSTORE PUSH1 0x20 ADD DUP4 DUP2 MSTORE PUSH1 0x20 ADD CALLER PUSH20 0xFFFFFFFFFFFFFFFFFFFFFFFFFFFFFFFFFFFFFFFF AND DUP2 MSTORE PUSH1 0x20 ADD DUP3 DUP2 MSTORE POP PUSH1 0x2 PUSH1 0x0 DUP5 DUP2 MSTORE PUSH1 0x20 ADD SWAP1 DUP2 MSTORE PUSH1 0x20 ADD PUSH1 0x0 KECCAK256 PUSH1 0x0 DUP3 ADD MLOAD DUP2 PUSH1 0x0 ADD PUSH1 0x0 PUSH2 0x100 EXP DUP2 SLOAD DUP2 PUSH20 0xFFFFFFFFFFFFFFFFFFFFFFFFFFFFFFFFFFFFFFFF MUL NOT AND SWAP1 DUP4 PUSH20 0xFFFFFFFFFFFFFFFFFFFFFFFFFFFFFFFFFFFFFFFF AND MUL OR SWAP1 SSTORE POP PUSH1 0x20 DUP3 ADD MLOAD DUP2 PUSH1 0x1 ADD SSTORE PUSH1 0x40 DUP3 ADD MLOAD DUP2 PUSH1 0x2 ADD PUSH1 0x0 PUSH2 0x100 EXP DUP2 SLOAD DUP2 PUSH20 0xFFFFFFFFFFFFFFFFFFFFFFFFFFFFFFFFFFFFFFFF MUL NOT AND SWAP1 DUP4 PUSH20 0xFFFFFFFFFFFFFFFFFFFFFFFFFFFFFFFFFFFFFFFF AND MUL OR SWAP1 SSTORE POP PUSH1 0x60 DUP3 ADD MLOAD DUP2 PUSH1 0x3 ADD SSTORE SWAP1 POP POP PUSH1 0x1 PUSH1 0x3 PUSH1 0x0 DUP5 DUP2 MSTORE PUSH1 0x20 ADD SWAP1 DUP2 MSTORE PUSH1 0x20 ADD PUSH1 0x0 KECCAK256 PUSH1 0x0 PUSH2 0x100 EXP DUP2 SLOAD DUP2 PUSH1 0xFF MUL NOT AND SWAP1 DUP4 ISZERO ISZERO MUL OR SWAP1 SSTORE POP PUSH2 0x6A7 PUSH2 0x9C4 JUMP JUMPDEST POP POP POP JUMP JUMPDEST PUSH1 0x1 PUSH1 0x0 SWAP1 SLOAD SWAP1 PUSH2 0x100 EXP SWAP1 DIV PUSH20 0xFFFFFFFFFFFFFFFFFFFFFFFFFFFFFFFFFFFFFFFF AND DUP2 JUMP JUMPDEST PUSH1 0x0 PUSH1 0x4 PUSH1 0x0 CALLER PUSH20 0xFFFFFFFFFFFFFFFFFFFFFFFFFFFFFFFFFFFFFFFF AND PUSH20 0xFFFFFFFFFFFFFFFFFFFFFFFFFFFFFFFFFFFFFFFF AND DUP2 MSTORE PUSH1 0x20 ADD SWAP1 DUP2 MSTORE PUSH1 0x20 ADD PUSH1 0x0 KECCAK256 SLOAD SWAP1 POP PUSH1 0x0 PUSH1 0x4 PUSH1 0x0 CALLER PUSH20 0xFFFFFFFFFFFFFFFFFFFFFFFFFFFFFFFFFFFFFFFF AND PUSH20 0xFFFFFFFFFFFFFFFFFFFFFFFFFFFFFFFFFFFFFFFF AND DUP2 MSTORE PUSH1 0x20 ADD SWAP1 DUP2 MSTORE PUSH1 0x20 ADD PUSH1 0x0 KECCAK256 DUP2 SWAP1 SSTORE POP CALLER PUSH20 0xFFFFFFFFFFFFFFFFFFFFFFFFFFFFFFFFFFFFFFFF AND PUSH2 0x8FC DUP3 SWAP1 DUP2 ISZERO MUL SWAP1 PUSH1 0x40 MLOAD PUSH1 0x0 PUSH1 0x40 MLOAD DUP1 DUP4 SUB DUP2 DUP6 DUP9 DUP9 CALL SWAP4 POP POP POP POP ISZERO DUP1 ISZERO PUSH2 0x7A1 JUMPI RETURNDATASIZE PUSH1 0x0 DUP1 RETURNDATACOPY RETURNDATASIZE PUSH1 0x0 REVERT JUMPDEST POP POP JUMP JUMPDEST PUSH1 0x1 ISZERO ISZERO PUSH1 0x3 PUSH1 0x0 DUP4 DUP2 MSTORE PUSH1 0x20 ADD SWAP1 DUP2 MSTORE PUSH1 0x20 ADD PUSH1 0x0 KECCAK256 PUSH1 0x0 SWAP1 SLOAD SWAP1 PUSH2 0x100 EXP SWAP1 DIV PUSH1 0xFF AND ISZERO ISZERO EQ PUSH2 0x80C JUMPI PUSH1 0x40 MLOAD PUSH32 0x8C379A000000000000000000000000000000000000000000000000000000000 DUP2 MSTORE PUSH1 0x4 ADD PUSH2 0x803 SWAP1 PUSH2 0xC74 JUMP JUMPDEST PUSH1 0x40 MLOAD DUP1 SWAP2 SUB SWAP1 REVERT JUMPDEST CALLER PUSH20 0xFFFFFFFFFFFFFFFFFFFFFFFFFFFFFFFFFFFFFFFF AND PUSH1 0x2 PUSH1 0x0 DUP4 DUP2 MSTORE PUSH1 0x20 ADD SWAP1 DUP2 MSTORE PUSH1 0x20 ADD PUSH1 0x0 KECCAK256 PUSH1 0x2 ADD PUSH1 0x0 SWAP1 SLOAD SWAP1 PUSH2 0x100 EXP SWAP1 DIV PUSH20 0xFFFFFFFFFFFFFFFFFFFFFFFFFFFFFFFFFFFFFFFF AND PUSH20 0xFFFFFFFFFFFFFFFFFFFFFFFFFFFFFFFFFFFFFFFF AND EQ PUSH2 0x8B0 JUMPI PUSH1 0x40 MLOAD PUSH32 0x8C379A000000000000000000000000000000000000000000000000000000000 DUP2 MSTORE PUSH1 0x4 ADD PUSH2 0x8A7 SWAP1 PUSH2 0xEE4 JUMP JUMPDEST PUSH1 0x40 MLOAD DUP1 SWAP2 SUB SWAP1 REVERT JUMPDEST DUP2 PUSH20 0xFFFFFFFFFFFFFFFFFFFFFFFFFFFFFFFFFFFFFFFF AND PUSH4 0x23B872DD ADDRESS CALLER DUP5 PUSH1 0x40 MLOAD DUP5 PUSH4 0xFFFFFFFF AND PUSH1 0xE0 SHL DUP2 MSTORE PUSH1 0x4 ADD PUSH2 0x8ED SWAP4 SWAP3 SWAP2 SWAP1 PUSH2 0xD63 JUMP JUMPDEST PUSH1 0x0 PUSH1 0x40 MLOAD DUP1 DUP4 SUB DUP2 PUSH1 0x0 DUP8 DUP1 EXTCODESIZE ISZERO DUP1 ISZERO PUSH2 0x907 JUMPI PUSH1 0x0 DUP1 REVERT JUMPDEST POP GAS CALL ISZERO DUP1 ISZERO PUSH2 0x91B JUMPI RETURNDATASIZE PUSH1 0x0 DUP1 RETURNDATACOPY RETURNDATASIZE PUSH1 0x0 REVERT JUMPDEST POP POP POP POP PUSH1 0x0 PUSH1 0x3 PUSH1 0x0 DUP4 DUP2 MSTORE PUSH1 0x20 ADD SWAP1 DUP2 MSTORE PUSH1 0x20 ADD PUSH1 0x0 KECCAK256 PUSH1 0x0 PUSH2 0x100 EXP DUP2 SLOAD DUP2 PUSH1 0xFF MUL NOT AND SWAP1 DUP4 ISZERO ISZERO MUL OR SWAP1 SSTORE POP POP POP JUMP JUMPDEST PUSH1 0x5 SLOAD DUP2 JUMP JUMPDEST PUSH1 0x3 PUSH1 0x20 MSTORE DUP1 PUSH1 0x0 MSTORE PUSH1 0x40 PUSH1 0x0 KECCAK256 PUSH1 0x0 SWAP2 POP SLOAD SWAP1 PUSH2 0x100 EXP SWAP1 DIV PUSH1 0xFF AND DUP2 JUMP JUMPDEST PUSH1 0x2 PUSH1 0x0 SLOAD SUB PUSH2 0x9BA JUMPI PUSH1 0x40 MLOAD PUSH32 0x8C379A000000000000000000000000000000000000000000000000000000000 DUP2 MSTORE PUSH1 0x4 ADD PUSH2 0x9B1 SWAP1 PUSH2 0xF50 JUMP JUMPDEST PUSH1 0x40 MLOAD DUP1 SWAP2 SUB SWAP1 REVERT JUMPDEST PUSH1 0x2 PUSH1 0x0 DUP2 SWAP1 SSTORE POP JUMP JUMPDEST PUSH1 0x1 PUSH1 0x0 DUP2 SWAP1 SSTORE POP JUMP JUMPDEST PUSH1 0x0 DUP1 REVERT JUMPDEST PUSH1 0x0 PUSH20 0xFFFFFFFFFFFFFFFFFFFFFFFFFFFFFFFFFFFFFFFF DUP3 AND SWAP1 POP SWAP2 SWAP1 POP JUMP JUMPDEST PUSH1 0x0 PUSH2 0x9FE DUP3 PUSH2 0x9D3 JUMP JUMPDEST SWAP1 POP SWAP2 SWAP1 POP JUMP JUMPDEST PUSH2 0xA0E DUP2 PUSH2 0x9F3 JUMP JUMPDEST DUP2 EQ PUSH2 0xA19 JUMPI PUSH1 0x0 DUP1 REVERT JUMPDEST POP JUMP JUMPDEST PUSH1 0x0 DUP2 CALLDATALOAD SWAP1 POP PUSH2 0xA2B DUP2 PUSH2 0xA05 JUMP JUMPDEST SWAP3 SWAP2 POP POP JUMP JUMPDEST PUSH1 0x0 DUP2 SWAP1 POP SWAP2 SWAP1 POP JUMP JUMPDEST PUSH2 0xA44 DUP2 PUSH2 0xA31 JUMP JUMPDEST DUP2 EQ PUSH2 0xA4F JUMPI PUSH1 0x0 DUP1 REVERT JUMPDEST POP JUMP JUMPDEST PUSH1 0x0 DUP2 CALLDATALOAD SWAP1 POP PUSH2 0xA61 DUP2 PUSH2 0xA3B JUMP JUMPDEST SWAP3 SWAP2 POP POP JUMP JUMPDEST PUSH1 0x0 DUP1 PUSH1 0x40 DUP4 DUP6 SUB SLT ISZERO PUSH2 0xA7E JUMPI PUSH2 0xA7D PUSH2 0x9CE JUMP JUMPDEST JUMPDEST PUSH1 0x0 PUSH2 0xA8C DUP6 DUP3 DUP7 ADD PUSH2 0xA1C JUMP JUMPDEST SWAP3 POP POP PUSH1 0x20 PUSH2 0xA9D DUP6 DUP3 DUP7 ADD PUSH2 0xA52 JUMP JUMPDEST SWAP2 POP POP SWAP3 POP SWAP3 SWAP1 POP JUMP JUMPDEST PUSH1 0x0 PUSH1 0x20 DUP3 DUP5 SUB SLT ISZERO PUSH2 0xABD JUMPI PUSH2 0xABC PUSH2 0x9CE JUMP JUMPDEST JUMPDEST PUSH1 0x0 PUSH2 0xACB DUP5 DUP3 DUP6 ADD PUSH2 0xA52 JUMP JUMPDEST SWAP2 POP POP SWAP3 SWAP2 POP POP JUMP JUMPDEST PUSH2 0xADD DUP2 PUSH2 0x9F3 JUMP JUMPDEST DUP3 MSTORE POP POP JUMP JUMPDEST PUSH2 0xAEC DUP2 PUSH2 0xA31 JUMP JUMPDEST DUP3 MSTORE POP POP JUMP JUMPDEST PUSH1 0x0 PUSH1 0x80 DUP3 ADD SWAP1 POP PUSH2 0xB07 PUSH1 0x0 DUP4 ADD DUP8 PUSH2 0xAD4 JUMP JUMPDEST PUSH2 0xB14 PUSH1 0x20 DUP4 ADD DUP7 PUSH2 0xAE3 JUMP JUMPDEST PUSH2 0xB21 PUSH1 0x40 DUP4 ADD DUP6 PUSH2 0xAD4 JUMP JUMPDEST PUSH2 0xB2E PUSH1 0x60 DUP4 ADD DUP5 PUSH2 0xAE3 JUMP JUMPDEST SWAP6 SWAP5 POP POP POP POP POP JUMP JUMPDEST PUSH1 0x0 DUP1 PUSH1 0x0 PUSH1 0x60 DUP5 DUP7 SUB SLT ISZERO PUSH2 0xB50 JUMPI PUSH2 0xB4F PUSH2 0x9CE JUMP JUMPDEST JUMPDEST PUSH1 0x0 PUSH2 0xB5E DUP7 DUP3 DUP8 ADD PUSH2 0xA1C JUMP JUMPDEST SWAP4 POP POP PUSH1 0x20 PUSH2 0xB6F DUP7 DUP3 DUP8 ADD PUSH2 0xA52 JUMP JUMPDEST SWAP3 POP POP PUSH1 0x40 PUSH2 0xB80 DUP7 DUP3 DUP8 ADD PUSH2 0xA52 JUMP JUMPDEST SWAP2 POP POP SWAP3 POP SWAP3 POP SWAP3 JUMP JUMPDEST PUSH1 0x0 PUSH2 0xB95 DUP3 PUSH2 0x9D3 JUMP JUMPDEST SWAP1 POP SWAP2 SWAP1 POP JUMP JUMPDEST PUSH2 0xBA5 DUP2 PUSH2 0xB8A JUMP JUMPDEST DUP3 MSTORE POP POP JUMP JUMPDEST PUSH1 0x0 PUSH1 0x20 DUP3 ADD SWAP1 POP PUSH2 0xBC0 PUSH1 0x0 DUP4 ADD DUP5 PUSH2 0xB9C JUMP JUMPDEST SWAP3 SWAP2 POP POP JUMP JUMPDEST PUSH1 0x0 PUSH1 0x20 DUP3 ADD SWAP1 POP PUSH2 0xBDB PUSH1 0x0 DUP4 ADD DUP5 PUSH2 0xAE3 JUMP JUMPDEST SWAP3 SWAP2 POP POP JUMP JUMPDEST PUSH1 0x0 DUP2 ISZERO ISZERO SWAP1 POP SWAP2 SWAP1 POP JUMP JUMPDEST PUSH2 0xBF6 DUP2 PUSH2 0xBE1 JUMP JUMPDEST DUP3 MSTORE POP POP JUMP JUMPDEST PUSH1 0x0 PUSH1 0x20 DUP3 ADD SWAP1 POP PUSH2 0xC11 PUSH1 0x0 DUP4 ADD DUP5 PUSH2 0xBED JUMP JUMPDEST SWAP3 SWAP2 POP POP JUMP JUMPDEST PUSH1 0x0 DUP3 DUP3 MSTORE PUSH1 0x20 DUP3 ADD SWAP1 POP SWAP3 SWAP2 POP POP JUMP JUMPDEST PUSH32 0x4E6F74206C697374656400000000000000000000000000000000000000000000 PUSH1 0x0 DUP3 ADD MSTORE POP JUMP JUMPDEST PUSH1 0x0 PUSH2 0xC5E PUSH1 0xA DUP4 PUSH2 0xC17 JUMP JUMPDEST SWAP2 POP PUSH2 0xC69 DUP3 PUSH2 0xC28 JUMP JUMPDEST PUSH1 0x20 DUP3 ADD SWAP1 POP SWAP2 SWAP1 POP JUMP JUMPDEST PUSH1 0x0 PUSH1 0x20 DUP3 ADD SWAP1 POP DUP2 DUP2 SUB PUSH1 0x0 DUP4 ADD MSTORE PUSH2 0xC8D DUP2 PUSH2 0xC51 JUMP JUMPDEST SWAP1 POP SWAP2 SWAP1 POP JUMP JUMPDEST PUSH32 0x4E6F7420656E6F756768206D6F6E657900000000000000000000000000000000 PUSH1 0x0 DUP3 ADD MSTORE POP JUMP JUMPDEST PUSH1 0x0 PUSH2 0xCCA PUSH1 0x10 DUP4 PUSH2 0xC17 JUMP JUMPDEST SWAP2 POP PUSH2 0xCD5 DUP3 PUSH2 0xC94 JUMP JUMPDEST PUSH1 0x20 DUP3 ADD SWAP1 POP SWAP2 SWAP1 POP JUMP JUMPDEST PUSH1 0x0 PUSH1 0x20 DUP3 ADD SWAP1 POP DUP2 DUP2 SUB PUSH1 0x0 DUP4 ADD MSTORE PUSH2 0xCF9 DUP2 PUSH2 0xCBD JUMP JUMPDEST SWAP1 POP SWAP2 SWAP1 POP JUMP JUMPDEST PUSH32 0x4E487B7100000000000000000000000000000000000000000000000000000000 PUSH1 0x0 MSTORE PUSH1 0x11 PUSH1 0x4 MSTORE PUSH1 0x24 PUSH1 0x0 REVERT JUMPDEST PUSH1 0x0 PUSH2 0xD3A DUP3 PUSH2 0xA31 JUMP JUMPDEST SWAP2 POP PUSH2 0xD45 DUP4 PUSH2 0xA31 JUMP JUMPDEST SWAP3 POP DUP3 DUP3 ADD SWAP1 POP DUP1 DUP3 GT ISZERO PUSH2 0xD5D JUMPI PUSH2 0xD5C PUSH2 0xD00 JUMP JUMPDEST JUMPDEST SWAP3 SWAP2 POP POP JUMP JUMPDEST PUSH1 0x0 PUSH1 0x60 DUP3 ADD SWAP1 POP PUSH2 0xD78 PUSH1 0x0 DUP4 ADD DUP7 PUSH2 0xAD4 JUMP JUMPDEST PUSH2 0xD85 PUSH1 0x20 DUP4 ADD DUP6 PUSH2 0xAD4 JUMP JUMPDEST PUSH2 0xD92 PUSH1 0x40 DUP4 ADD DUP5 PUSH2 0xAE3 JUMP JUMPDEST SWAP5 SWAP4 POP POP POP POP JUMP JUMPDEST PUSH32 0x5072696365206E6565647320746F2062652067726561746572207468616E2030 PUSH1 0x0 DUP3 ADD MSTORE POP JUMP JUMPDEST PUSH1 0x0 PUSH2 0xDD0 PUSH1 0x20 DUP4 PUSH2 0xC17 JUMP JUMPDEST SWAP2 POP PUSH2 0xDDB DUP3 PUSH2 0xD9A JUMP JUMPDEST PUSH1 0x20 DUP3 ADD SWAP1 POP SWAP2 SWAP1 POP JUMP JUMPDEST PUSH1 0x0 PUSH1 0x20 DUP3 ADD SWAP1 POP DUP2 DUP2 SUB PUSH1 0x0 DUP4 ADD MSTORE PUSH2 0xDFF DUP2 PUSH2 0xDC3 JUMP JUMPDEST SWAP1 POP SWAP2 SWAP1 POP JUMP JUMPDEST PUSH32 0x506C6561736520696E636C75646520746865207472616E73616374696F6E2066 PUSH1 0x0 DUP3 ADD MSTORE PUSH32 0x6565000000000000000000000000000000000000000000000000000000000000 PUSH1 0x20 DUP3 ADD MSTORE POP JUMP JUMPDEST PUSH1 0x0 PUSH2 0xE62 PUSH1 0x22 DUP4 PUSH2 0xC17 JUMP JUMPDEST SWAP2 POP PUSH2 0xE6D DUP3 PUSH2 0xE06 JUMP JUMPDEST PUSH1 0x40 DUP3 ADD SWAP1 POP SWAP2 SWAP1 POP JUMP JUMPDEST PUSH1 0x0 PUSH1 0x20 DUP3 ADD SWAP1 POP DUP2 DUP2 SUB PUSH1 0x0 DUP4 ADD MSTORE PUSH2 0xE91 DUP2 PUSH2 0xE55 JUMP JUMPDEST SWAP1 POP SWAP2 SWAP1 POP JUMP JUMPDEST PUSH32 0x4E6F7420796F7572206E66740000000000000000000000000000000000000000 PUSH1 0x0 DUP3 ADD MSTORE POP JUMP JUMPDEST PUSH1 0x0 PUSH2 0xECE PUSH1 0xC DUP4 PUSH2 0xC17 JUMP JUMPDEST SWAP2 POP PUSH2 0xED9 DUP3 PUSH2 0xE98 JUMP JUMPDEST PUSH1 0x20 DUP3 ADD SWAP1 POP SWAP2 SWAP1 POP JUMP JUMPDEST PUSH1 0x0 PUSH1 0x20 DUP3 ADD SWAP1 POP DUP2 DUP2 SUB PUSH1 0x0 DUP4 ADD MSTORE PUSH2 0xEFD DUP2 PUSH2 0xEC1 JUMP JUMPDEST SWAP1 POP SWAP2 SWAP1 POP JUMP JUMPDEST PUSH32 0x5265656E7472616E637947756172643A207265656E7472616E742063616C6C00 PUSH1 0x0 DUP3 ADD MSTORE POP JUMP JUMPDEST PUSH1 0x0 PUSH2 0xF3A PUSH1 0x1F DUP4 PUSH2 0xC17 JUMP JUMPDEST SWAP2 POP PUSH2 0xF45 DUP3 PUSH2 0xF04 JUMP JUMPDEST PUSH1 0x20 DUP3 ADD SWAP1 POP SWAP2 SWAP1 POP JUMP JUMPDEST PUSH1 0x0 PUSH1 0x20 DUP3 ADD SWAP1 POP DUP2 DUP2 SUB PUSH1 0x0 DUP4 ADD MSTORE PUSH2 0xF69 DUP2 PUSH2 0xF2D JUMP JUMPDEST SWAP1 POP SWAP2 SWAP1 POP JUMP INVALID LOG2 PUSH5 0x6970667358 0x22 SLT KECCAK256 0xF6 0xD8 0x21 0xE8 RETURNDATASIZE PUSH32 0x514ECE4997A7F92754DD7334C16B531192398F280ADEFEC843EA64736F6C6343 STOP ADDMOD SLT STOP CALLER "
				},
				"gasEstimates": {
					"creation": {
						"codeDepositCost": "801200",
						"executionCost": "22952",
						"totalCost": "824152"
					},
					"external": {
						"buyNft(address,uint256)": "infinite",
						"isListed(uint256)": "2862",
						"listItem(address,uint256,uint256)": "infinite",
						"nftListings(uint256)": "infinite",
						"owner()": "2581",
						"transactionFee()": "2473",
						"unlistItem(address,uint256)": "infinite",
						"withdrawProceeds()": "infinite"
					}
				},
				"methodIdentifiers": {
					"buyNft(address,uint256)": "4ddf4f8f",
					"isListed(uint256)": "fcce4883",
					"listItem(address,uint256,uint256)": "89bfd38f",
					"nftListings(uint256)": "7c5bb03d",
					"owner()": "8da5cb5b",
					"transactionFee()": "9ed3edf0",
					"unlistItem(address,uint256)": "99bd17e4",
					"withdrawProceeds()": "9038e693"
				}
			},
			"storageLayout": {
				"storage": [
					{
						"astId": 10,
						"contract": "marketplace.sol:Marketplace",
						"label": "_status",
						"offset": 0,
						"slot": "0",
						"type": "t_uint256"
					},
					{
						"astId": 189,
						"contract": "marketplace.sol:Marketplace",
						"label": "owner",
						"offset": 0,
						"slot": "1",
						"type": "t_address_payable"
					},
					{
						"astId": 203,
						"contract": "marketplace.sol:Marketplace",
						"label": "nftListings",
						"offset": 0,
						"slot": "2",
						"type": "t_mapping(t_uint256,t_struct(NFT)198_storage)"
					},
					{
						"astId": 207,
						"contract": "marketplace.sol:Marketplace",
						"label": "isListed",
						"offset": 0,
						"slot": "3",
						"type": "t_mapping(t_uint256,t_bool)"
					},
					{
						"astId": 211,
						"contract": "marketplace.sol:Marketplace",
						"label": "sellerProceeds",
						"offset": 0,
						"slot": "4",
						"type": "t_mapping(t_address,t_uint256)"
					},
					{
						"astId": 213,
						"contract": "marketplace.sol:Marketplace",
						"label": "transactionFee",
						"offset": 0,
						"slot": "5",
						"type": "t_uint256"
					}
				],
				"types": {
					"t_address": {
						"encoding": "inplace",
						"label": "address",
						"numberOfBytes": "20"
					},
					"t_address_payable": {
						"encoding": "inplace",
						"label": "address payable",
						"numberOfBytes": "20"
					},
					"t_bool": {
						"encoding": "inplace",
						"label": "bool",
						"numberOfBytes": "1"
					},
					"t_mapping(t_address,t_uint256)": {
						"encoding": "mapping",
						"key": "t_address",
						"label": "mapping(address => uint256)",
						"numberOfBytes": "32",
						"value": "t_uint256"
					},
					"t_mapping(t_uint256,t_bool)": {
						"encoding": "mapping",
						"key": "t_uint256",
						"label": "mapping(uint256 => bool)",
						"numberOfBytes": "32",
						"value": "t_bool"
					},
					"t_mapping(t_uint256,t_struct(NFT)198_storage)": {
						"encoding": "mapping",
						"key": "t_uint256",
						"label": "mapping(uint256 => struct Marketplace.NFT)",
						"numberOfBytes": "32",
						"value": "t_struct(NFT)198_storage"
					},
					"t_struct(NFT)198_storage": {
						"encoding": "inplace",
						"label": "struct Marketplace.NFT",
						"members": [
							{
								"astId": 191,
								"contract": "marketplace.sol:Marketplace",
								"label": "nftAddress",
								"offset": 0,
								"slot": "0",
								"type": "t_address"
							},
							{
								"astId": 193,
								"contract": "marketplace.sol:Marketplace",
								"label": "tokenID",
								"offset": 0,
								"slot": "1",
								"type": "t_uint256"
							},
							{
								"astId": 195,
								"contract": "marketplace.sol:Marketplace",
								"label": "owner",
								"offset": 0,
								"slot": "2",
								"type": "t_address"
							},
							{
								"astId": 197,
								"contract": "marketplace.sol:Marketplace",
								"label": "price",
								"offset": 0,
								"slot": "3",
								"type": "t_uint256"
							}
						],
						"numberOfBytes": "128"
					},
					"t_uint256": {
						"encoding": "inplace",
						"label": "uint256",
						"numberOfBytes": "32"
					}
				}
			},
			"userdoc": {
				"kind": "user",
				"methods": {},
				"version": 1
			}
		}
	}
}